:020000040800F2
:10000000E00500209D01000813160008D513000824
:1000100011160008CD020008C519000800000000F4
:10002000000000000000000000000000171600089B
:10003000CF0200080000000015160008191600087D
:10004000B7010008B7010008B7010008B7010008B0
:10005000B7010008B7010008B7010008B7010008A0
:10006000B7010008B7010008B7010008B701000890
:10007000B7010008B7010008B7010008B701000880
:10008000B7010008B7010008B7010008B701000870
:10009000B7010008B7010008B7010008B701000860
:1000A000B7010008CD160008C1160008B701000806
:1000B000D9160008B7010008B7010008B701000809
:1000C000B7010008B7010008B7010008B701000830
:1000D000B7010008B7010008B7010008B701000820
:1000E000B7010008B7010008B7010008B701000810
:1000F000B7010008B7010008B7010008B701000800
:10010000B7010008B7010008B7010008B7010008EF
:10011000B7010008B7010008B7010008B7010008DF
:10012000B7010008B7010008B7010008B7010008CF
:10013000B7010008B7010008B7010008B7010008BF
:10014000B7010008B7010008B7010008B7010008AF
:10015000B7010008B7010008B7010008B70100089F
:10016000B7010008B7010008B7010008B70100088F
:10017000B7010008B7010008B7010008000000003F
:10018000B7010008B7010008DFF80CD000F08CF8C8
:1001900000480047051A0008E0050020064880478F
:1001A00006480047FEE7FEE7FEE7FEE7FEE7FEE75C
:1001B000FEE7FEE7FEE7FEE7A51600088901000856
:1001C0002DE9F05F0546002092469B46884606468C
:1001D000814640241BE0284641464746224600F01F
:1001E00053F853465A46C01A914110D31146184647
:1001F000224600F03AF82D1A67EB01084F462246D6
:100200000120002100F031F817EB00094E41201EBB
:10021000A4F10104DFDC484631462A464346BDE8E6
:10022000F09F40EA01039B0703D009E008C9121FB1
:1002300008C0042AFAD203E011F8013B00F8013BA0
:10024000521EF9D27047D2B201E000F8012B491ECC
:10025000FBD270470022F6E710B513460A46044663
:100260001946FFF7F0FF204610BD202A04DB203A94
:1002700000FA02F1002070479140C2F1200320FAF9
:1002800003F3194390407047202A04DB203A21FAF7
:1002900002F00021704721FA02F3D040C2F120029F
:1002A0009140084319467047064C074D06E0E06848
:1002B00040F0010394E8070098471034AC42F6D3AD
:1002C000FFF766FF041B0008241B0008FEE77047C9
:1002D0007047000070B5044600F0F6F80546601C53
:1002E00002D004480078044400F0EEF8401BA0421D
:1002F000FAD370BD080000202DE9F84F00224FF01E
:10030000010803254FF00F0E0B6808FA02F4234092
:10031000A3426ED14E68012E05D0022E03D0112EBD
:1003200001D0122E12D186684FEA420C05FA0CF762
:10033000BE43CF6807FA0CF7374387604668A64389
:100340000C79C4F30014944034434460C6685700E9
:1003500005FA07FC8C6826EA0C06BC403443C460EE
:100360004C68022C01D0122C13D1D40800EB840469
:10037000A346D4F8209054074FEAD46A0EFA0AF63E
:1003800029EA06090E6906FA0AF646EA0906CBF8D2
:10039000206006680C7926EA0C0604F00304BC40D1
:1003A000344304604C68E40065D5364C266846F456
:1003B00080462660246822F0030604F480440094FA
:1003C000314C3444A446D4F808489607370F0EFA47
:1003D00007F6B4432D4EB04201D1002624E02C4E46
:1003E000B04201D101261FE02A4EB04202D10226BE
:1003F0001AE040E0284EB04201D1032614E0274E17
:10040000B04201D104260FE0254EB04201D10526AD
:100410000AE0244EB04201D1062605E0224EB04249
:1004200001D1072600E00826BE402643CCF8086824
:100430001E4E34684F689C43FF0300D51C43346054
:100440001A4C241D26684F689E43BF0300D51E43E7
:100450002660164E083634684F689C43FF0200D56C
:100460001C433460114E0C3634684F689C43BF0205
:1004700000D51C433460521C102AFFF445AFBDE880
:10048000F88F000044380240003001400000024074
:100490000004024000080240000C0240001002402C
:1004A0000014024000180240001C0240003C0140C1
:1004B000426931EA020200D10904816170470AB140
:1004C000816170470904FBE70148806870470000BC
:1004D0000800002070B5040025D094F83D000025E8
:1004E00020B984F83C50204600F0B8F8242084F865
:1004F0003D002068016821F0010101602068016869
:1005000041F4004101602068016821F4004101606C
:1005100000F012FA4D4A6168914201D84C4900E05E
:100520004C49884201D2012070BD4B492368B0FB81
:10053000F1F15E6826F03F060E435E606368934209
:1005400006D94FF4967359434FF47A73B1FBF3F124
:100550002368491C1E6A26F03F0631431962616810
:10056000914210D84900401EB0FBF1F2521CC2F378
:100570000B02042A01D2042022E0B0FBF1F0401C5F
:10058000C0F30B001CE0A268F2B301EBC10303EB64
:100590000116431EB3FBF6F35B1C43F480431B05BB
:1005A00049D092B301EBC10202EB0111401EB0FB36
:1005B000F1F0401CC0F30B0040F4804040F40040D8
:1005C0002168CA694CF6FF739A431043C861D4E9A5
:1005D000071001432068026822F0C0021143016045
:1005E000D4E9030101432068826848F2FF339A434B
:1005F00011438160D4E9050108432168CA6822F0EB
:10060000FF021043C86001E00EE016E020680168B8
:1006100041F0010101602564202084F83D0025633C
:1006200084F83E50002070BD01EB4106431EB3FB31
:10063000F6F35B1CB3E70120C2E701EB4101401E6A
:10064000B0FBF1F0401CC0F30B00B7E7A08601003F
:1006500080841E0000093D0040420F0010B586B0A6
:10066000044614216846FFF7F5FD134920688842C7
:1006700020D11248016841F002010160006869461A
:1006800000F002000590C02000901220019001208F
:10069000029003200390042004900948FFF72CFEE9
:1006A00006481030016841F400110160006800F450
:1006B0000010059006B010BD0054004030380240D4
:1006C000000402400248816802781144816070474A
:1006D000080000200B4810B5016841F4007101606A
:1006E000016841F480610160016841F4807101603A
:1006F000032000F06FF8002000F006F800F024F866
:10070000002010BD003C024070B50D4D04464FF472
:100710007A712878B1FBF0F00A490968B1FBF0F072
:1007200000F008FB48B9102C07D200222146501EC9
:1007300000F030F800206C6070BD012070BD00003A
:1007400008000020300000200A4808B5016841F484
:1007500080410160006800F4804000900548001F5F
:10076000016841F080510160006800F08050009005
:1007700008BD000044380240002809DB00F01F02D9
:10078000012191404009800000F1E020C0F80011F3
:1007900070470000F0B40E4B1B680C46C3F30223F5
:1007A000C3F10705042D00D90425191D072901D21D
:1007B000002300E0DB1E012606FA05F1491E214058
:1007C00099409E40761E16403143F0BC01F0FBB8C4
:1007D0000CED00E0064900F0070208684FF6FF0341
:1007E000184040EA0220034A1043086070470000A6
:1007F0000CED00E00000FA052DE9F0470E4605007B
:1008000065D0DFF81481D8F80000F7B200F00F00CF
:10081000B04207D288F80070D8F8000000F00F004E
:10082000B04254D128683D4C810712D5400703D50A
:10083000206840F4E05020602878000703D5206845
:1008400040F4604020602068A96820F0F000084370
:1008500020602878C0072DD0304968680839012801
:1008600012D0022813D0032811D009688907002963
:100870002DDA216821F0030101432160FFF724FEF6
:10088000814641F2883A0EE009688903EFE709687A
:100890008901ECE7FFF718FEA0EB0901514502D9E9
:1008A0000320BDE8F0872068696800F00C00B0EB19
:1008B000810FEFD1D8F80010404601F00F01B1428E
:1008C00007D90770006800F00F00B04201D0012086
:1008D000E7E72878400705D52068E96820F4E0506C
:1008E000084320602878000706D52068296920F48D
:1008F000604040EAC100206000F03EF82168084AEC
:10090000C1F30311515CC8400649086006480068FD
:10091000FFF7FAFE0020C4E7003C0240083802401E
:10092000EC1A0008300000200C00002001490120D2
:10093000C8647047000047420448054900680968D8
:10094000044AC1F38221515CC84070473000002046
:1009500008380240FC1A0008044805490068096884
:10096000044AC1F34231515CC84070473000002056
:1009700008380240FC1A0008154810B5006810F04D
:100980000C02144813D04110042A0FD0082A0ED1AB
:100990000F4C241F2268236802F03F025B0207D538
:1009A0002068C0F38810A0FB010106E0084610BDD6
:1009B0002168C1F38811A1FB00010023FFF700FCAF
:1009C0002168C1F30141491C4900B0FBF1F010BDA1
:1009D000083802400024F4002DE9F84F04006ED0DE
:1009E0002078DFF83C93C007A9F104054AD009F14B
:1009F00004000168C1F38101012908D00068C0F337
:100A0000810002280AD1D9F80000400206D52868E2
:100A1000800337D560680028E1D033E06068B0F526
:100A2000803F10D0B0F5A02F286810D020F480307F
:100A30002860286820F4802028606068A8B1FFF74B
:100A400043FD06460DE0286840F48030F4E740F4AA
:100A500080202860F7E700BFFFF736FD801B642881
:100A600073D828688003F7D50CE0FFF72DFD064604
:100A700005E000BFFFF728FD801B6428F0D8286838
:100A80008003F7D42078DFF89C8280074FF0000ABB
:100A90003ED5A348001D016811F00C0F08D0006876
:100AA000C0F3810002280BD1D9F80000400207D41E
:100AB0002868800716D5E068012800D112E02BE1F4
:100AC000E068B8B10120C8F80000FFF7FDFC064659
:100AD00005E000BFFFF7F8FC801B0228C0D828689B
:100AE0008007F7D52868216920F0F80040EAC100A6
:100AF00028600DE0C8F800A0FFF7E6FC064604E019
:100B0000FFF7E2FC801B02281FD828688007F7D473
:100B10002078000722D5824E83486169703671B112
:100B200001210160FFF7D0FC074604E0FFF7CCFC91
:100B3000C01B022809D830688007F7D50EE0C0F83E
:100B400000A0FFF7C1FC074605E082E0FFF7BCFC10
:100B5000C01B02287DD830688007F7D42078400772
:100B600068D5DFF8BCB100270BF13C0BDBF80000C7
:100B7000C0000BD4DBF8001041F08051CBF800101E
:100B8000DBF80000012700F080500090674E3068CD
:100B9000C00510D4306840F480703060FFF794FCDA
:100BA000009005E0FFF790FC0099401A022850D809
:100BB0003068C005F6D55A4EA0686C3601280FD0B3
:100BC0000528306810D020F001003060306820F037
:100BD00004003060A068B8B1FFF776FC00900FE029
:100BE000306840F00100F4E740F004003060F7E7BF
:100BF000FFF76AFC0099411A41F28830814266D8B9
:100C000030688007F4D50EE0FFF75EFC009007E047
:100C1000FFF75AFC0099411A41F28830814256D8B8
:100C200030688007F4D42FB1DBF8001021F0805138
:100C3000CBF80010A069C8B33949091D0968C1F390
:100C4000810102294AD00228504607D0C8F8600026
:100C500000E03CE0FFF738FC04463BE04746C8F8BC
:100C60006000FFF731FC064605E000BFFFF72CFCF3
:100C7000801B02282BD828688001F7D4D4E907010B
:100C80000843A16A2A4A490802EB0141626A41EA23
:100C90008211084394F82C1040EA0161C9F8001051
:100CA00001203866FFF710FC044606E036E000BF7E
:100CB000FFF70AFC001B022809D828688001F7D535
:100CC0002CE000BFFFF700FC001B022802D9032024
:100CD000BDE8F88F28688001F4D41FE00128F7D020
:100CE000D9F80000E26900F48001914214D1226A2F
:100CF00000F03F0191420FD147F6C071626A014096
:100D0000914209D1A26A00F44031914204D1E16AD2
:100D100000F07060884201D00120D9E70020D7E7B9
:100D20000438024000004742800E474200700040F5
:100D30000000FFFF10B5401EB0F1807F01D30120FD
:100D400010BD4FF0E02460610F21601700F03BFE02
:100D50000020A06107202061002010BD704770476F
:100D600070B590F83C20012A32D0012480F83C4034
:100D7000022280F83D2003685A689D6822F07006C0
:100D80000A6832435A60134B02689A4214D0B2F197
:100D9000804F11D0104B9A420ED0104B9A420BD07C
:100DA0000F4B9A4208D00F4B9A4205D00E4B9A42F5
:100DB00002D00E4B9A4204D1496825F080031943B2
:100DC000916080F83D40002180F83C10084670BDDD
:100DD000022070BD000001400004004000080040F7
:100DE000000C004000040140004001400018004099
:100DF00010B5040003D094F83D0010B107E00120C5
:100E000010BD002084F83C00204600F00DF80220C0
:100E100084F83D00211D206800F064FC012084F866
:100E20003D00002010BD000010B586B0044614211E
:100E30006846FFF70FFA254A2168002091422ED11B
:100E400023490A6842F001020A60096801F00101C1
:100E500005911F4914390A6842F010020A600968B6
:100E600001F0100105914FF4007100910221CDE9CC
:100E7000011003900120049069461648FFF73CFAE0
:100E8000002211461920FFF785FC1920FFF774FC9A
:100E9000002211461A20FFF77DFC1A2012E0B1F162
:100EA000804F11D10A48001F016841F00101016023
:100EB0000068002200F00100059011461C20FFF799
:100EC00069FC1C20FFF758FC06B010BD0000014073
:100ED00044380240001002400168CA6842F0010232
:100EE000CA600068816801F00701062903D0016823
:100EF00041F0010101600020704770B5044690F890
:100F00003C00012817D0012584F83C50022084F8C9
:100F10003D002068826822F0770222F47F428260DE
:100F20000868502830D00DDC20284DD005DC98B35F
:100F300010283BD148E0022070BD302844D0402822
:100F400034D139E0602828D0702806D0B0F5805F11
:100F50002CD0B0F5005F29D10AE0CB68D1E901219E
:100F6000206800F023FC2068816841F0770109E0E7
:100F7000CB68D1E90121206800F018FC2068816865
:100F800041F48041816011E0CA684968206800F03E
:100F900062FC5021206807E016E0CA6849682068B2
:100FA00000F06AFC6021206800F00AFC84F83D50E3
:100FB000002084F83C0070BDCA684968206800F0D1
:100FC0004AFC40212068EFE7226801461046EBE723
:100FD000704770B50446006801694FF00005C943C9
:100FE000890715D4C168C943890711D4E91E016175
:100FF00001202077206880698007204602D0FFF713
:10100000E7FF04E000F098F8204600F096F8257716
:1010100020680169C943490717D4C168C943490712
:1010200013D46FF0040101610220207720688069E9
:1010300010F4407F204602D0FFF7CAFF04E000F022
:101040007BF8204600F079F8257720680169C943CC
:10105000090716D4C168C943090712D46FF0080103
:101060000161042020772068C0698007204602D0F3
:10107000FFF7AEFF04E000F05FF8204600F05DF8F7
:10108000257720680169C943C90617D4C168C943D7
:10109000C90613D46FF01001016108202077206881
:1010A000C06910F4407F204602D0FFF791FF04E0B2
:1010B00000F042F8204600F040F8257720680169EA
:1010C000C943C90708D1C168C943C90704D1891EEA
:1010D0000161204600F032F820680169C943090621
:1010E00009D4C168C943090605D46FF080010161C4
:1010F0002046FFF733FE20680169C943490609D439
:10110000C168C943490605D46FF04001016120461A
:1011100000F041F820680169C94389060BD4C16811
:10112000C943890607D46FF0200101612046BDE85C
:101130007040FFF714BE70BD7047704700F02CB9C7
:1011400070B5044690F83C00012812D0012584F8BF
:101150003C50022084F83D00204600F039FB01009D
:101160004FF0000007D084F83D5084F83C00012087
:1011700070BD022070BD2168CA6822F04002CA60BA
:101180002168CA6822F48042CA6084F83D5084F81D
:101190003C00002070BD704770B5040004D094F886
:1011A0003900002510B106E0012070BD84F83850E8
:1011B000204600F023F8242084F839002068C16814
:1011C00021F40051C160204600F068FB20680169ED
:1011D00021F4904101612068416921F02A014161B7
:1011E0002068C16841F40051C160E563202084F8A3
:1011F000390084F83A00002070BD000010B586B0B8
:10120000044614216846FFF725F8134920688842F0
:1012100020D112480021026842F4003202600068C6
:1012200000F4003005900D481038026842F00102C9
:101230000260006800F0010005900C200090022080
:10124000CDE901010320039007200490694604487A
:10125000FFF752F806B010BD00440040403802408D
:101260000000024070B5054600F00CFC364C01222F
:101270006188A069FFF723F9012221886069FFF7DF
:101280001EF93248002601684E6200680169C943B0
:10129000C907FBD1002221886069FFF710F92B48AC
:1012A0006FF04002403809E04B6A00EE103AB8EEA9
:1012B000400A84ED010A4E6201680A6101680B6907
:1012C000DB435B0603D40B69DB43DB07ECD194ED16
:1012D000010AF6EE000A20EE200ADFED1D0A20EEDC
:1012E000200AF0EE000A84ED020A94ED020A30EEC4
:1012F000600AF2EE040A84ED020A94ED020A85ED1A
:10130000030A94ED020A20EE200ADFED120A85EDB1
:10131000020A94ED020A80EE201ADFED0F0A85ED35
:10132000041A94ED020A80EE201ADFED0C0A85ED16
:10133000051A94ED010A85ED010A94ED010A80EE8B
:10134000201A85ED001A70BD14000020A0010020B5
:10135000287E0C3D0000C8425C8F224000007A4489
:1013600010B500F08FFB0A4C002221886069FFF75E
:10137000A6F800226188A069FFF7A1F80548FFF7E9
:10138000ABFD0448BDE810404030FFF7A5BD0000AC
:10139000140000206001002010B5044600F072FB2C
:1013A0000A4821686FF001040269914201D108489E
:1013B00009E0C268914208D1418800228069FFF7A4
:1013C0007EF8034840380068046110BD1400002016
:1013D000A0010020FEE700002DE9F04186B01421B5
:1013E0006846FEF737FF2D480024016841F00401EC
:1013F0000160016801F004010591016841F080017C
:101400000160016801F080010591016841F001016E
:101410000160016801F001010591016841F01001CE
:101420000160016801F010010591016841F00801B7
:101430000160016801F008010591016841F00201B5
:1014400001600068164F00F0020005900022402164
:101450003846FFF734F8012280213846FFF72FF88D
:10146000DFF840804FF47046002231464046FFF7D7
:1014700026F8C02000900125CDE901546946384680
:101480000394FEF739FF0096CDE9015469464046C2
:101490000394FEF731FF06B0BDE8F081303802401A
:1014A00000000240000C02400D4810B50B490160DD
:1014B0000C49416000214FF480428160C0E9031271
:1014C00041618161C1610162FFF704F8002803D026
:1014D000BDE81040FEF7FCBE10BD00000054004007
:1014E0004C000020A086010010B58CB000240594AB
:1014F00006940794142168460894FEF7ABFE1C4836
:1015000009941A490A940160A721C0E901144FF611
:10151000FF71C0E9031444618461FFF769FC08B1FD
:10152000FEF7D6FE4FF48050059005A91048FFF74E
:10153000E4FC08B1FEF7CCFE052000905020CDE978
:1015400001040F20049069460948FFF7F9FD08B12E
:10155000FEF7BEFE099409A905480A94FFF700FCAE
:10156000002801D0FEF7B4FE0CB010BD0000014011
:10157000A000002010B586B0002416480094019405
:101580000294039404944FF0804105940160532128
:10159000C0E901140921C0E903148461FFF728FCA4
:1015A00008B1FEF795FE4FF4805000906946094857
:1015B000FFF7A3FC08B1FEF78BFE049404A90548CD
:1015C0000594FFF7CDFB002801D0FEF781FE06B0A1
:1015D00010BD0000E00000200C4810B50A49016071
:1015E0004FF4E1314160002181600C22C160C0E90B
:1015F00004128161C161FFF7CFFD002803D0BDE86F
:101600001040FEF765BE10BD0044004020010020E0
:10161000FEE7704770477047FFF754B830B593B096
:1016200030216846FEF716FE14210CA8FEF712FEC4
:101630001A480025016841F080510160006800F0FF
:10164000805011901648016841F4804101600068A3
:10165000022400F4804011900120009000040190C9
:101660008001CDE9064008AA0420A82182E81300E1
:101670000B906846FFF7B0F90CA90F2081E8310004
:101680004FF4A0500F90E002109005210CA8FFF736
:10169000B3F8FFF74BF913B030BD000040380240FB
:1016A000007000400548016841F470010160034981
:1016B0004FF00060803908607047000088ED00E05E
:1016C0000148FFF786BC0000A00000200148FFF79A
:1016D00080BC0000A00000200148FFF77ABC000099
:1016E000E0000020F0B50268254C264D264E274F1D
:1016F000274B4FF0804CA04209D0604507D0A8424C
:1017000005D0B04203D0B84201D0984204D122F0B3
:10171000700E4A6842EA0E02A0421BD0604519D002
:10172000A84217D0B04215D0B84213D0984211D079
:10173000184DA8420ED0184DA8420BD0174DA84204
:1017400008D0174DA84205D0164DA84202D0164D1C
:10175000A84203D122F44075CA682A434D6922F099
:1017600080022A4302608A68C2620A688262A042DA
:1017700001D0984201D10969016301214161F0BDA5
:10178000000001400004004000080040000C004040
:101790000004014000400140004401400048014075
:1017A00000180040001C00400020004010B5846874
:1017B00042EA032224F47F440A432243826010BD9C
:1017C000826822F070020A4342F00701816070478C
:1017D00010B503689A6822F070044A68224322F028
:1017E00007040A6822439A604A6812F00F0F30D14A
:1017F0001211082A2DD2DFE802F02C2C2C2C0B2100
:1018000027040B69D1E902210068FFF7CFFF20E030
:101810000A68052A10D00268136A146A24F00104C9
:10182000146202689469096924F0F00444EA011121
:101830009161006803620CE0012010BD0A698968AB
:10184000006800F008F804E00A698968006800F0A0
:1018500013F8002010BD10B5036A046A24F00104D7
:101860000462846924F0F00444EA021423F00A02BA
:101870000A438461026210BD10B5036A23F01003AD
:1018800003628369046A23F4704343EA023224F05A
:10189000A00343EA01118261016210BD2DE9F0410C
:1018A000044600680169E26821F440511143016176
:1018B0002169A068E269084361691143084321680E
:1018C000CA6849F20C639A430243CA6020684169BE
:1018D000A26921F4407111434161E069192764252F
:1018E0003226B0F5004F354A354920684FF00008E0
:1018F00006D0884201D0904236D1FFF72DF835E06E
:10190000884201D0904202D1FFF726F801E0FFF7AC
:1019100013F861684A18A0FB070148EB0803FEF7BB
:101920004FFC0146B0FBF5F00201B1FBF5F06FF0A2
:101930001803584301EB800006EBC000B0FBF5F044
:1019400000F0F80002EB4002B1FBF5F0584301EB68
:10195000800006EBC000B0FBF5F000F00700216846
:1019600010448860BDE8F081FEF7E6FF61688B0FE8
:101970008A00A0FB0701FEF723FC0146B0FBF5F04F
:101980006FF01802504301EB800006EB0010B0FB33
:10199000F5F000F0F002B1FBF5F002EB0012B1FB44
:1019A000F5F06FF01803584301EB800006EB0010D0
:1019B000B0FBF5F000F00F00D1E70000001401408B
:1019C00000100140FEE70907090E002804DB00F1C2
:1019D000E02080F80014704700F00F0000F1E020D4
:1019E00080F8141D704702E008C8121F08C1002AC1
:1019F000FAD170477047002001E001C1121F002A90
:101A0000FBD17047FEF766FEFFF708FEFFF7E4FC28
:101A1000FFF74AFDFFF768FDFFF7ACFDFFF7DCFDC0
:101A2000FFF79EFC124C134D134F144EDFF85090ED
:101A30004FF480480E48FFF715FC94ED010A85ED40
:101A4000000AE0686860B8420EDA40213046FEF7CE
:101A50002FFD80213046FEF72BFD41464846FEF71C
:101A600027FD6420FEF736FC6420FEF733FCE1E737
:101A700034000020000000200000F041000002407F
:101A8000000C024010B53D2212491348FEF7C9FB75
:101A9000104890F83D00104981F83D00104C0F4867
:101AA0003D22E0600C480F494030FEF7BAFB0D487C
:101AB00090F83D000849403181F83D004FF08040EA
:101AC000206109484FF4005160612180A0618800C5
:101AD000608010BDA00000206001002000000140D7
:101AE00014000020E0000020000C02400000000074
:101AF00000000000010203040607080900000000BE
:101B000001020304241B0008000000203400000030
:101B1000E6190008581B000834000020AC0500003E
:101B2000F61900080000000000000000010000009D
:101B30001000000000000000000000000000000095
:101B40000000000000000000000000000000000095
:081B5000000000000024F40075
:040000050800018965
:00000001FF
