:020000040800F2
:10000000100400209D0100081B0E00080D0B0008C5
:10001000190E0008E5020008C50E000800000000E7
:100020000000000000000000000000001F0E00089B
:10003000E7020008000000001D0E0008210E000865
:10004000B7010008B7010008B7010008B7010008B0
:10005000B7010008B7010008B7010008B7010008A0
:10006000B7010008B7010008B7010008B701000890
:10007000B7010008B7010008B7010008B701000880
:10008000B7010008B7010008B7010008B701000870
:10009000B7010008B7010008B7010008B701000860
:1000A000B7010008B7010008B7010008B701000850
:1000B000B7010008B7010008B7010008B701000840
:1000C000B7010008B7010008B7010008B701000830
:1000D000B7010008B7010008B7010008B701000820
:1000E000B7010008B7010008B7010008B701000810
:1000F000B7010008B7010008B7010008B701000800
:10010000B7010008B7010008B7010008B7010008EF
:10011000B7010008B7010008B7010008B7010008DF
:10012000B7010008B7010008B7010008B7010008CF
:10013000B7010008B7010008B7010008B7010008BF
:10014000B7010008B7010008B7010008B7010008AF
:10015000B7010008B7010008B7010008B70100089F
:10016000B7010008B7010008B7010008B70100088F
:10017000B7010008B7010008B7010008000000003F
:10018000B7010008B7010008DFF80CD000F07AF8DA
:10019000004800470510000810040020064880476A
:1001A00006480047FEE7FEE7FEE7FEE7FEE7FEE75C
:1001B000FEE7FEE7FEE7FEE7A90E0008890100085A
:1001C0002DE9F05F0546002092469B46884606468C
:1001D000814640241BE0284641464746224600F01F
:1001E00041F853465A46C01A914110D31146184659
:1001F000224600F028F82D1A67EB01084F462246E8
:100200000120002100F01FF817EB00094E41201ECD
:10021000A4F10104DFDC484631462A464346BDE8E6
:10022000F09FD2B201E000F8012B491EFBD27047CB
:100230000022F6E710B513460A4604461946FFF7B2
:10024000F0FF204610BD202A04DB203A00FA02F11C
:10025000002070479140C2F1200320FA03F31943B4
:1002600090407047202A04DB203A21FA02F0002156
:10027000704721FA02F3D040C2F1200291400843B6
:1002800019467047064C074D06E0E06840F0010350
:1002900094E8070098471034AC42F6D3FFF778FF94
:1002A000186B0208386B020870B50D46044600EB67
:1002B00002211E46442000F0B5FC2946452000F0EE
:1002C000B1FC3146462000F0ADFC21464E2000F046
:1002D000A9FC29464F2000F0A5FCBDE87040222073
:1002E00000F016BCFEE7704770B5044600F0F0F869
:1002F0000546601C02D004480078044400F0E8F889
:10030000401BA042FAD370BD000000202DE9F84F39
:1003100000224FF0010803254FF00F0E0B6808FA7A
:1003200002F42340A3426ED14E68012E05D0022E66
:1003300003D0112E01D0122E12D186684FEA420C42
:1003400005FA0CF7BE43CF6807FA0CF7374387600E
:100350004668A6430C79C4F30014944034434460C7
:10036000C668570005FA07FC8C6826EA0C06BC40F4
:100370003443C4604C68022C01D0122C13D1D40831
:1003800000EB8404A346D4F8209054074FEAD46AC3
:100390000EFA0AF629EA06090E6906FA0AF646EA8C
:1003A0000906CBF8206006680C7926EA0C0604F0F2
:1003B0000304BC40344304604C68E40065D5364C0B
:1003C000266846F480462660246822F0030604F47A
:1003D00080440094314C3444A446D4F8084896072D
:1003E000370F0EFA07F6B4432D4EB04201D1002666
:1003F00024E02C4EB04201D101261FE02A4EB0422B
:1004000002D102261AE040E0284EB04201D1032674
:1004100014E0274EB04201D104260FE0254EB04231
:1004200001D105260AE0244EB04201D1062605E09E
:10043000224EB04201D1072600E00826BE402643E6
:10044000CCF808681E4E34684F689C43FF0300D503
:100450001C4334601A4C241D26684F689E43BF031A
:1004600000D51E432660164E083634684F689C43FC
:10047000FF0200D51C433460114E0C3634684F68BF
:100480009C43BF0200D51C433460521C102AFFF469
:1004900045AFBDE8F88F000044380240003001400D
:1004A000000002400004024000080240000C02402C
:1004B000001002400014024000180240001C0240DC
:1004C000003C01400AB1816170470904FBE700006C
:1004D00001488068704700000000002002488168E1
:1004E0000278114481607047000000200B4810B56D
:1004F000016841F400710160016841F480610160AC
:10050000016841F480710160032000F061F800206F
:1005100000F006F800F024F8002010BD003C024076
:1005200070B50D4D04464FF47A712878B1FBF0F0A8
:100530000A490968B1FBF0F000F0D4FA48B9102C70
:1005400007D200222146501E00F022F800206C60E5
:1005500070BD012070BD0000000000200C000020D4
:100560000A4808B5016841F480410160006800F460
:10057000804000900548001F016841F080510160F3
:10058000006800F08050009008BD00004438024030
:10059000F0B40E4B1B680C46C3F30223C3F10705EE
:1005A000042D00D90425191D072901D2002300E0DC
:1005B000DB1E012606FA05F1491E214099409E40A6
:1005C000761E16403143F0BC00F07DBC0CED00E01F
:1005D000064900F0070208684FF6FF03184040EA9A
:1005E0000220034A10430860704700000CED00E051
:1005F0000000FA052DE9F0470E46050065D0DFF84A
:100600001481D8F80000F7B200F00F00B04207D212
:1006100088F80070D8F8000000F00F00B04254D104
:1006200028683D4C810712D5400703D5206840F467
:10063000E05020602878000703D5206840F460402F
:1006400020602068A96820F0F00008432060287826
:10065000C0072DD0304968680839012812D0022817
:1006600013D0032811D00968890700292DDA2168E1
:1006700021F0030101432160FFF72AFF814641F287
:10068000883A0EE009688903EFE709688901ECE719
:10069000FFF71EFFA0EB0901514502D90320BDE879
:1006A000F0872068696800F00C00B0EB810FEFD193
:1006B000D8F80010404601F00F01B14207D9077089
:1006C000006800F00F00B04201D00120E7E7287871
:1006D000400705D52068E96820F4E0500843206011
:1006E0002878000706D52068296920F4604040EA90
:1006F000C100206000F018F82168084AC1F3031116
:10070000515CC8400649086006480068FFF708FFCA
:100710000020C4E7003C024008380240086B020891
:100720000C00002004000020154810B5006810F0EF
:100730000C02144813D04110042A0FD0082A0ED1FD
:100740000F4C241F2268236802F03F025B0207D58A
:100750002068C0F38810A0FB010106E0084610BD28
:100760002168C1F38811A1FB00010023FFF728FDD8
:100770002168C1F30141491C4900B0FBF1F010BDF3
:10078000083802400024F4002DE9F84F04006ED030
:100790002078DFF83C93C007A9F104054AD009F19D
:1007A00004000168C1F38101012908D00068C0F389
:1007B000810002280AD1D9F80000400206D5286835
:1007C000800337D560680028E1D033E06068B0F579
:1007D000803F10D0B0F5A02F286810D020F48030D2
:1007E0002860286820F4802028606068A8B1FFF79E
:1007F0006FFE06460DE0286840F48030F4E740F4D0
:1008000080202860F7E700BFFFF762FE801B6428A6
:1008100073D828688003F7D50CE0FFF759FE064629
:1008200005E000BFFFF754FE801B6428F0D828685D
:100830008003F7D42078DFF89C8280074FF0000A0D
:100840003ED5A348001D016811F00C0F08D00068C8
:10085000C0F3810002280BD1D9F80000400207D470
:100860002868800716D5E068012800D112E02BE146
:10087000E068B8B10120C8F80000FFF729FE06467D
:1008800005E000BFFFF724FE801B0228C0D82868BF
:100890008007F7D52868216920F0F80040EAC100F8
:1008A00028600DE0C8F800A0FFF712FE064604E03D
:1008B000FFF70EFE801B02281FD828688007F7D498
:1008C0002078000722D5824E83486169703671B165
:1008D00001210160FFF7FCFD074604E0FFF7F8FD8A
:1008E000C01B022809D830688007F7D50EE0C0F891
:1008F00000A0FFF7EDFD074605E082E0FFF7E8FD09
:10090000C01B02287DD830688007F7D420784007C4
:1009100068D5DFF8BCB100270BF13C0BDBF8000019
:10092000C0000BD4DBF8001041F08051CBF8001070
:10093000DBF80000012700F080500090674E30681F
:10094000C00510D4306840F480703060FFF7C0FDFF
:10095000009005E0FFF7BCFD0099401A022850D82E
:100960003068C005F6D55A4EA0686C3601280FD005
:100970000528306810D020F001003060306820F089
:1009800004003060A068B8B1FFF7A2FD00900FE04E
:10099000306840F00100F4E740F004003060F7E711
:1009A000FFF796FD0099411A41F28830814266D8DE
:1009B00030688007F4D50EE0FFF78AFD009007E06D
:1009C000FFF786FD0099411A41F28830814256D8DE
:1009D00030688007F4D42FB1DBF8001021F080518B
:1009E000CBF80010A069C8B33949091D0968C1F3E3
:1009F000810102294AD00228504607D0C8F8600079
:100A000000E03CE0FFF764FD04463BE04746C8F8E1
:100A10006000FFF75DFD064605E000BFFFF758FDEB
:100A2000801B02282BD828688001F7D4D4E907015D
:100A30000843A16A2A4A490802EB0141626A41EA75
:100A40008211084394F82C1040EA0161C9F80010A3
:100A500001203866FFF73CFD044606E036E000BFA3
:100A6000FFF736FD001B022809D828688001F7D55A
:100A70002CE000BFFFF72CFD001B022802D9032049
:100A8000BDE8F88F28688001F4D41FE00128F7D072
:100A9000D9F80000E26900F48001914214D1226A81
:100AA00000F03F0191420FD147F6C071626A0140E8
:100AB000914209D1A26A00F44031914204D1E16A25
:100AC00000F07060884201D00120D9E70020D7E70C
:100AD0000438024000004742800E47420070004048
:100AE0000000FFFF10B5401EB0F1807F01D3012050
:100AF00010BD4FF0E02460610F21601700F0E3F9B2
:100B00000020A06107202061002010BDFEE700004A
:100B10002DE9F041404D044600224FF40051284693
:100B2000FFF7D0FC3D4E002240213046FFF7CAFCC3
:100B30003B4F04F0010201213846FFF7C3FCC4F328
:100B4000400202213846FFF7BDFCC4F380020421B5
:100B50003846FFF7B7FCC4F3C00208213846FFF758
:100B6000B1FCC4F3001210213846FFF7ABFCC4F30C
:100B7000401220213846FFF7A5FCC4F38012402123
:100B80003846FFF79FFCC4F3C01280213846FFF7B8
:100B900099FCC4F3002210213046FFF793FCC4F304
:100BA000402220213046FFF78DFCC4F38022012132
:100BB0002846FFF787FCC4F3C02202212846FFF72E
:100BC00081FCC4F3003208212846FFF77BFCC4F304
:100BD000403229152846FFF775FCC4F38032E9142A
:100BE0002846FFF76FFCC4F3C032A9142846FFF76C
:100BF00069FC4FF48044002221462846FFF762FC3E
:100C0000012221462846FFF75DFC3046BDE8F04151
:100C100001224021FFF756BC0004024000080240B8
:100C20000000024010B50C46FFF772FF2046BDE8F9
:100C3000104000F001B800002DE9F041404D04469D
:100C4000012251032846FFF73DFC3E4E0022402181
:100C50003046FFF737FC3C4F04F0010201213846D3
:100C6000FFF730FCC4F3400202213846FFF72AFCAC
:100C7000C4F3800204213846FFF724FCC4F3C00209
:100C800008213846FFF71EFCC4F300121021384635
:100C9000FFF718FCC4F3401220213846FFF712FC7E
:100CA000C4F3801240213846FFF70CFCC4F3C01295
:100CB00080213846FFF706FCC4F30022102130469D
:100CC000FFF700FCC4F3402220213046FFF7FAFB77
:100CD000C4F3802201212846FFF7F4FBC4F3C022AD
:100CE00002212846FFF7EEFBC4F300320821284614
:100CF000FFF7E8FBC4F3403229152846FFF7E2FB73
:100D0000C4F38032E9142846FFF7DCFBC4F3C03299
:100D1000A9142846FFF7D6FB4FF480440022214651
:100D20002846FFF7CFFB012221462846FFF7CAFBE2
:100D30003046BDE8F04101224021FFF7C3BB00006F
:100D40000004024000080240000002402DE9F04388
:100D500087B014216846FFF76BFA2B48002401681E
:100D600041F080010160016801F080010591016896
:100D700041F001010160016801F001010591016884
:100D800041F004010160016801F00401059101686E
:100D900041F00201016000681C4F00F00200059064
:100DA0000022FF213846FFF78DFBDFF86480002228
:100DB000F0214046FFF786FBDFF858904FF60B46D0
:100DC000002231464846FFF77DFBFF2000900125B9
:100DD000CDE90154694638460394FFF797FAF020AD
:100DE0000090CDE90154694640460394FFF78EFA1E
:100DF0000096CDE90154694648460394FFF786FA08
:100E000007B0BDE8F0830000303802400000024027
:100E10000008024000040240FEE770477047704738
:100E2000FFF75CBB30B593B030216846FFF700FA9E
:100E300014210CA8FFF7FCF919480025016841F0BE
:100E400080510160006800F08050119015480168E1
:100E500041F4804101600068022400F48040119058
:100E600001200090000401908001CDE9064008AA0D
:100E70000420A82182E813000B906846FFF784FC49
:100E80000CA90F2081E831004FF4A0500F90E00230
:100E9000109005210CA8FFF7ADFB13B030BD00008A
:100EA00040380240007000400548016841F470017C
:100EB000016003494FF0006080390860704700000E
:100EC00088ED00E0FEE70907090E002804DB00F1C9
:100ED000E02080F80014704700F00F0000F1E020DF
:100EE00080F8141D704702E008C8121F08C1002ACC
:100EF000FAD170477047002001E001C1121F002A9B
:100F0000FBD170472DE9F0413B4D0C4601225103C6
:100F10002846FFF7D7FA394E002240213046FFF726
:100F2000D1FA374F04F0010201213846FFF7CAFA1F
:100F3000C4F3400202213846FFF7C4FAC4F380022A
:100F400004213846FFF7BEFAC4F3C0020821384630
:100F5000FFF7B8FAC4F3001210213846FFF7B2FACF
:100F6000C4F3401220213846FFF7ACFAC4F38012D4
:100F700040213846FFF7A6FAE20980213846FFF7FC
:100F8000A1FA002210213046FFF79CFA002220210E
:100F90003046FFF797FA002201212846FFF792FA20
:100FA000002202212846FFF78DFA00220821284658
:100FB000FFF788FA002229152846FFF783FA002256
:100FC000E9142846FFF77EFA0022A9142846FFF705
:100FD00079FA4FF48044002221462846FFF772FA3E
:100FE000012221462846FFF76DFA3046BDE8F04160
:100FF00001224021FFF766BA0004024000080240C7
:1010000000000240FFF772FAFFF70CFFFFF79EFEA9
:1010100000F01AF8002140F23F13EF220846FFF7D4
:1010200043F9084D00244FF4963600BF05EB440009
:1010300015F814104078FFF765FF641CB442F5D32F
:10104000FEE700000813000870B5AD4C01228021B6
:101050002046FFF737FA0520FFF746F900228021E6
:101060002046FFF72FFA0A20FFF73EF901228021E0
:101070002046FFF727FA002240212046FFF722FAF8
:101080000122A04DD40321462846FFF71BFA012276
:1010900091032846FFF716FA1420FFF725F90121DE
:1010A0000020FFF7BFFD0120FFF71EF94AF6A4015B
:1010B0000320FFF7B7FD0120FFF716F900210C20F0
:1010C000FFF7B0FD0120FFF70FF940F60C010D20EE
:1010D000FFF7A8FD0120FFF707F94FF42C510E2070
:1010E000FFF7A0FD0120FFF7FFF8B0211E20FFF75A
:1010F00099FD0120FFF7F8F842F63F310120FFF794
:1011000091FD0120FFF7F0F84FF4C0610220FFF7D6
:1011100089FD0120FFF7E8F800211020FFF782FD8C
:101120000120FFF7E1F846F270011120FFF77AFD88
:101130000120FFF7D9F800210520FFF773FD0120FA
:10114000FFF7D2F800210620FFF76CFD0120FFF722
:10115000CBF84EF61C711620FFF764FD0120FFF757
:10116000C3F803211720FFF75DFD0120FFF7BCF84E
:1011700040F233210720FFF755FD0120FFF7B4F8B7
:1011800000210B20FFF74EFD0120FFF7ADF80021F5
:101190000F20FFF747FD0120FFF7A6F800214120AF
:1011A000FFF740FD0120FFF79FF800214220FFF7E5
:1011B00039FD0120FFF798F800214820FFF732FDA4
:1011C0000120FFF791F840F23F1529464920FFF72B
:1011D00029FD0120FFF788F800214A20FFF722FDB2
:1011E0000120FFF781F800214B20FFF71BFD0120B4
:1011F000FFF77AF84FF46F414420FFF713FD012009
:10120000FFF772F800214520FFF70CFD0120FFF7E2
:101210006BF829464620FFF705FD0120FFF764F82B
:1012200040F207713020FFF7FDFC0120FFF75CF86A
:101230004FF4017529463120FFF7F4FC0120FFF738
:1012400053F829463220FFF7EDFC0120FFF74CF858
:1012500040F2025631463320FFF7E4FC0120FFF74D
:1012600043F8711D3420FFF7DDFC0120FFF73CF847
:1012700029463520FFF7D6FC0120FFF735F829462F
:101280003620FFF7CFFC0120FFF72EF8314637203C
:10129000FFF7C8FC0120FFF727F840F20235294686
:1012A0003A20FFF7BFFC0120FFF71EF829463B203C
:1012B000FFF7B8FC0120FFF717F800212320FFF704
:1012C000B1FC0120FFF710F800212420FFF7AAFC51
:1012D0000120FFF709F821462520FFF7A3FC012094
:1012E000FFF702F800214F20FFF79CFC00214E2061
:1012F000FFF798FCBDE870402220FFF709BC000012
:10130000000802400004024000000000000000004D
:1013100000000000000000000000000000000000CD
:1013200000000000000000000000000000000000BD
:1013300000000000000000000000000000000000AD
:101340000000000066004F12B32B7544D64CB54C1C
:101350001655B765775D364D364D975D3755B544B3
:10136000964495447544553C1434B42B7323121B96
:10137000500A8D014C012C012C016D01AE01EF01D1
:10138000CE01CE01CE01AE018D014C010B01CA0090
:10139000AA006900280027000700060006000600D2
:1013A0000500050005000500050004000400040018
:1013B000030003000200020002000200020002001B
:1013C0000200020002000200010001000100010011
:1013D000010001000100000000000000000000000A
:1013E00000000000000000000000000000000000FD
:1013F00000000000000000000000000001000100EB
:1014000001000100020001000100020001000100D2
:1014100001000100010001000100010001000100C4
:1014200001000100010001000100020003000300AF
:10143000030003000400040004000400040004008E
:10144000040005000400040003000400040003007D
:10145000030003000200020002000100000000007F
:10146000000000000000000000000000000000007C
:10147000000000000000000000000000000000006C
:10148000000000000000000000000000000000005C
:10149000000000000000000000000000000000004C
:1014A000000000000000000000000000000000003C
:1014B000000000000000000000000000000000002C
:1014C000000000000000000000000000000000001C
:1014D0000000000000000000010001000200020006
:1014E00003000300040004000000000000000000EE
:1014F00000000000000000000000000000000000EC
:1015000000000000000000000000000000000000DB
:1015100000000000000000000000000000000000CB
:1015200000000100040088002E12143C95449544EC
:101530009544975DB8655755785DD865775DD54C0E
:10154000D64CD64CB644B6443534942B121B500AB4
:10155000CE018D016D014D014D016D01CE012F0AAE
:10156000500A500A0F0AAD016D012C01CB008A0010
:10157000690089006900480027000700060006008E
:101580000600060005000500060005000500040031
:101590000300030003000300030003000300030033
:1015A000030002000200020002000200020002002A
:1015B0000100010001000100000000000000000027
:1015C000000000000000000000000000000000001B
:1015D0000000000000000000000001000100020007
:1015E00002000200020002000200020002000100EC
:1015F00001000200020001000100010001000100E1
:1016000001000100010001000100020003000400CC
:1016100004000400040004000500050005000500A6
:101620000600060006000500040004000400040093
:10163000040003000300020002000100000000009B
:101640000000010001000100010001000000010094
:101650000000000001000100000000000000000088
:10166000000000000000000000000000000000007A
:10167000000000000000000000000000000000006A
:10168000000000000000000000000000000000005A
:10169000000000000000000000000000000000004A
:1016A000000000000000000000000000000000003A
:1016B0000000000000000000010001000200020024
:1016C000030003000400040000000000000000000C
:1016D000000000000000000000000000000000000A
:1016E00000000000000000000000000000000000FA
:1016F00000000000000000000000000000000200E8
:10170000040046006800A900D01A753CB644B544F0
:10171000F644B7653876F775F8751876D86D77554D
:10172000F64CB644763C14347323D1122F0ACE0102
:101730008E018E018D018D018E01AE01AE01EF0192
:10174000700A900AEE016C012C01EB00AA006900FE
:10175000480048006800480028000700070006000D
:10176000060006000600060006000500050005004C
:10177000040004000400030003000300030003004E
:101780000300030002000200020002000200020047
:10179000020002000200020001000100010001003D
:1017A0000100010000000000000000000000000037
:1017B0000000000000000000000001000100020025
:1017C0000200020002000300020002000200020008
:1017D00002000200020002000200010001000200FB
:1017E00002000100010002000200030003000400E7
:1017F00004000400050005000500060006000700BF
:101800002700480027000600050005000500050028
:1018100004000400030003000200020001000100B4
:1018200001000100010001000100010001000100B0
:1018300001000100010001000100000000000000A3
:101840000000000000000000000000000000000098
:101850000000000000000000000000000000000088
:101860000000000000000000000000000000000078
:101870000000000000000000000000000000000068
:101880000000000000000000000000000000000058
:101890000000000000000000010001000200020042
:1018A000030003000400240000000000000000000A
:1018B0000000000000000000000000000000000028
:1018C0000000000000000000000000000000000018
:1018D000000000000000000000000200040068009A
:1018E0002B010F0A0F0A3123F64C164DB544B644AE
:1018F0005755B765387E788E988E798E1876985DB4
:10190000174D963CF42B331BB1123002EF01CE0180
:10191000AE018E018E01AE01AE01AE01AE010F022D
:10192000500A500AAE012C012C01EB00AA006900FC
:1019300069004800690068002800080007000700E7
:101940000700060006000600060006000600050067
:101950000500050004000400030003000300030069
:101960000300030003000300020003000300030060
:101970000300030003000200020002000200020054
:101980000100010001000100000000000000000053
:101990000000000000000000010001000200020041
:1019A0000200020003000300030003000200020023
:1019B0000200020002000100020002000200020018
:1019C0000200020002000200020003000400040002
:1019D0000500050005000500060006000700480098
:1019E0006800890069004700060006000500050040
:1019F00005000500040004000300030002000200CB
:101A000002000200020002000100020001000100C9
:101A100001000100010002000200010001000000BD
:101A200000000000000000000000000000000000B6
:101A300000000000000000000000000000000000A6
:101A40000000000000000000000000000000000096
:101A50000000000000000000000000000000000086
:101A60000000000000000000000000000000000076
:101A70000000000000000000000001000200020061
:101A800002000300240044000000000000000000E9
:101A90000000000000000000000000000000000046
:101AA0000000000000000000000000000000000036
:101AB000000000000000000001000400A800CE01AA
:101AC000B112932B1434F64C975D9865164D374D33
:101AD000975DF865187E788E999678861876785D89
:101AE000D64435347323D20A910A3002EF01CF0174
:101AF000AE018E018E01AE01AE01AE01AE01EF016D
:101B000030020F02AE012C012C010C01EB00CA00C7
:101B1000AA008A0089006900480028000800070020
:101B20000700070007000600060006000600050083
:101B30000500050004000400040004000400040083
:101B4000040003000300030003000300030003007C
:101B5000030003000300030003000300020002006F
:101B6000020001000100010001000100000000006E
:101B7000000000000100010001000200030003005A
:101B8000030003000300030003000300030002003E
:101B90000200020002000200020002000200020035
:101BA0000200010002000200030003000400040020
:101BB0000500050005000500060006002700480096
:101BC00069008900890068002700270006000500D9
:101BD00005000500050005000400030003000300E4
:101BE00003000300030003000300020002000100E1
:101BF00001000100010002000200020001000100DA
:101C000001000000000000000000000000000000D3
:101C100000000000000000000000000000000000C4
:101C200000000000000000000000000000000000B4
:101C300000000000000000000000000000000000A4
:101C40000000000000000000000000000000000094
:101C5000000000000000000001000100010002007F
:101C600002002300440044000000000000000000C7
:101C70000000000000000000000000000000000064
:101C80000000000000000000000000000000000054
:101C9000000000000000000001000500EA00B10A99
:101CA0005323753CB86DD86DD76DF86DB765387630
:101CB0003976186E187639765986597EF86D785DC2
:101CC000B644D4231213D10AB10A710A1002CF010B
:101CD000AE01AE01AE01AE01AE01AE01AE01EF014B
:101CE00010021002AE016D016D016D012C01AB00FF
:101CF0008A008A008A006A0049002800080007005C
:101D0000070007000700070007000700060006009D
:101D1000050005000500050004000400040004009F
:101D20000400040003000300030003000300030099
:101D30000300040004000300040003000300020089
:101D40000200020001000100010001000100010089
:101D50000100010001000100010002000300030076
:101D60000400040004000400030003000300030057
:101D7000030003000300030002000200020002004F
:101D8000020002000200020003000300040004003D
:101D900004000500050005000600060007002800F5
:101DA0004800890089008900690048000700060092
:101DB00006000600060006000500050004000400F9
:101DC00004000400040004000400030002000100F9
:101DD00001000100010002000200020002000200F6
:101DE00002000200010001000000000000000000ED
:101DF00000000000000000000000000000000000E3
:101E000000000000000000000000000000000000D2
:101E100000000000000000000000000000000000C2
:101E200000000000000000000000000000000000B2
:101E3000000000000000000001000100020002009C
:101E400003002300440064000000000000000000C4
:101E50000000000000000000000000000000000082
:101E60000000000000000000000000000000000072
:101E700000000000000000000300CA00701A353C9A
:101E8000D54CF87599969996B996998E988EB9967B
:101E9000798E3876186E396E3976396EF8657855E0
:101EA000D644152C731BF212D20A710A1002EF01EC
:101EB000CE01AE01AE01CF01CF01CF01EF01100283
:101EC0001002EF01AE016D018D016D010C01AA0040
:101ED00069006A006A00690069004800280008007B
:101EE00008000700070007000700070007000700B9
:101EF00006000600050005000500050005000400B9
:101F000004000400040003000400040004000400B2
:101F100004000400040004000400040003000300A3
:101F200003000200020002000200010001000100A3
:101F30000100010001000200020002000300030092
:101F40000400040004000400030004000300030074
:101F5000030003000300030003000200020002006C
:101F6000020002000200030003000300030004005B
:101F70000400040005000500060006000700070035
:101F80002800480068008900890068004700270091
:101F900006000600070007002700070006000600ED
:101FA0000500050004000400030003000200010016
:101FB000010001000200030003000400040004000B
:101FC0000300030002000200010001000000000005
:101FD0000000000000000000000000000000000001
:101FE00000000000000000000000000000000000F1
:101FF00000000000000000000000000000000000E1
:1020000000000000000000000000000000000000D0
:1020100000000000000000000100010002000200BA
:102020002300430064008508000000000000000059
:1020300000000000000000000000000000000000A0
:102040000000000000000000000000000000000090
:10205000000000000100010046002F12B64418766F
:10206000387E798EB99EB99EDA9ED99EFAAEDA9EF6
:1020700079861876F865196E196EF865D85D37554A
:10208000963CF52B741BF212D20A910A30020F0211
:10209000CF01AF01CF01CF01D001F001100230021A
:1020A000510AEF018E012D014D014D010C01CB00B4
:1020B000AA008A008A006A006900490028002800F6
:1020C00008000800080008000800070007000700D3
:1020D00006000600050005000500050005000400D7
:1020E00005000500040004000400040004000400CE
:1020F00004000400040004000400040004000300C1
:1021000003000300030002000200020002000200BC
:1021100002000200020002000200020002000300AE
:10212000040004000500050004000400040004008D
:102130000400040003000300030003000300030085
:10214000020002000300030002000200030003007B
:102150000300040005000500060006000600070055
:102160000700270027006800890088004800280031
:102170002700480048006800680068004800270001
:10218000270006000500040003000300020002000F
:102190000100020003000500050005000500050020
:1021A0000400030003000200020001000000000020
:1021B000000000000000000000000000000000001F
:1021C000000000000000000000000000000000000F
:1021D00000000000000000000000000000000000FF
:1021E00000000000000000000000000000000000EF
:1021F00000000000000000000100010002000200D9
:102200002300440064008508000000000000000076
:1022100000000000000000000000000000000000BE
:1022200000000000000000000000000000000000AE
:102230000000000002006700EE117644785D387EF1
:10224000788E598E7996798E998EB996FAA6DA9EFD
:10225000597EF965B85DF965F965D85DB85D374DAA
:10226000B63CF5235313D30A920A910A500A10027E
:10227000F001CF01CF01CF01CF01F00111023102F6
:102280005102EF016E01EC00CB00AB00EC000C0141
:10229000CB00CB008A006A006900490029002800B1
:1022A00028002800080008000800070007000700B1
:1022B00006000600060006000600060006000500EF
:1022C00005000500050005000400050005000500E7
:1022D00005000500050005000400040004000400DA
:1022E00004000400030003000300030003000300D4
:1022F00002000200030003000200030003000300C9
:1023000004000400050005000500050005000500A7
:1023100004000400040003000300030003000300A2
:102320000300030003000300030002000200030097
:102330000300030004000500050006000600060077
:1023400007000700470068008900890068006800EE
:10235000680068008900A900A900A9008900880018
:1023600068002700060005000300030003000200C8
:102370000200030004002600480047002600260053
:102380000600050004000300030002000100000035
:10239000000000000000000000000000000000003D
:1023A000000000000000000000000000000000002D
:1023B000000000000000000000000000000000001D
:1023C000000000000000000000000000000000000D
:1023D00000000000000000000100010002000200F7
:1023E000230044006408850800000000000000008D
:1023F00000000000000000000000000000000000DD
:1024000000000000000000000000000000000000CC
:102410000000010067008E01D3335755F775788EA1
:10242000588E3886597E397E597E59867A867A86C4
:102430003A76F965D865D865B95D98557855174DE0
:10244000B63CF5235313F312B20AB10A910A5102B2
:1024500030021002F001F001100210021102F0012E
:10246000CF01AF018F01EC006A00CB002D014D01BF
:102470002D01EC008A006A006A00690049004900E9
:10248000290029002900290008000700070007008B
:10249000060006000600060006000600060006000C
:1024A0000500050005000500050005000500050004
:1024B00005000500050005000500040004000400F7
:1024C00004000400040003000300030003000300F1
:1024D00003000300030003000300030003000300E4
:1024E00004000500050005000600060006000600C1
:1024F00005000400040004000400040003000300BD
:1025000003000300030003000300030003000300B3
:102510000300030004000400050006000600060096
:1025200027002800480068008900A9008900890068
:10253000880068008900A900EA00EA00CA00A90032
:1025400068004800260005000500040003000200A2
:10255000020003000500470088008800670067004C
:10256000270006000400040003000300020001002D
:10257000000000000000000000000000000000005B
:10258000000000000000000000000000000000004B
:10259000000000000000000000000000000000003B
:1025A000000000000000000000000000000000002B
:1025B00000000000000000000100010002002200F5
:1025C00023004400640885080000000000000000AB
:1025D00000000000000000000000000000000000FB
:1025E00000000000000000000000000000000000EB
:1025F00001000100EA00900A553C1876DAA6D9A637
:10260000999E5986597E3976597E5976196EF96D9B
:10261000F965D965D95DD95DD95DD85D5855D7447F
:102620009734F523741B1413F212F312D30AB20A6F
:10263000710A710A51025102510230021002F00176
:10264000AF01AF01AF01EC004900CC006E018E017B
:102650008E012D01CB008A008A006A0049004900E2
:102660004900290049002900090008000700070067
:102670000700070007000700070007000600060024
:102680000600050005000500050005000500050021
:102690000500050005000500050005000400040014
:1026A000040004000400040004000400040004000A
:1026B00004000400030003000300030003000400FF
:1026C00004000500050005000600060006000600DF
:1026D00005000400040004000400040004000400D9
:1026E00003000300030003000300030003000300D2
:1026F0000300030004000400050005000600270095
:1027000028004800680088008900AA00AA00A900E3
:10271000A90089008800A900CA00EA000A01CA00CD
:10272000A9008800470026000500040003000200FD
:102730000100030005006800C900A80087006700C9
:10274000470026000500040003000300020001000A
:102750000100000000000000000000000000000078
:102760000000000000000000000000000000000069
:102770000000000000000000000000000000000059
:102780000000000000000000000000000000000049
:102790000000000000000000010001000200220013
:1027A00043004400640885080000000000000000A9
:1027B0000000000000000000000000000000000019
:1027C0000000000000000000000000000000000009
:1027D000010001008800F11A976DB99E5BC77BCF9D
:1027E0003AB7FAA6998E597E3976196ED965B95DD0
:1027F0007855785578559855D965F9659855D63CEA
:102800007634362CD423741B541B341B1313F3124D
:10281000B10A920AB20AB20A510A1002F0018F01FB
:102820000D01EC00EC004A0009000D01CF01CF01C1
:10283000CF01AE010D01AB008A006A006A00690099
:10284000490049004A002900290008000800070043
:102850000700070006000600070007000700060043
:10286000060006000600050005000500050005003D
:102870000500050005000500050005000500050030
:102880000500050005000500050005000500050020
:102890000500040004000400040004000400040017
:1028A00004000500060007000600060006000600FA
:1028B00005000400040004000400040004000400F7
:1028C00004000400040003000300030003000300ED
:1028D00003000400040005000500060007002700AF
:1028E0004800690089008900A900A900CA00CA003F
:1028F000A900A900A900A900AA00EA000A012B0169
:102900000A01EA00890068002700060004000300AD
:102910000100020005008800E900E900A900880024
:1029200068004700260005000400030003000200C1
:102930000100000000000000000000000000000096
:102940000000000000000000000000000000000087
:102950000000000000000000000000000000000077
:102960000000000000000000000000000000000067
:102970000000000000000000010001000200230030
:1029800043006400640885080000000000000000A7
:102990000000000000000000000000000000000037
:1029A0000000000000000000000000000000000027
:1029B000000001008600964CBA963AB7DCE7DCE7E7
:1029C000BCD73BB7BA9E397ED965D85DD865B95DAD
:1029D000574D1745F744374D58557855384DB7344E
:1029E000562C562C562CF52BB42394239423541B8D
:1029F000F312B20AD20AB20A31028E010D01EC00C2
:102A0000AC004A002800080049006E0110021002C4
:102A1000110210028E01CC006A006A006A004900AF
:102A20004A0049004A004A002A002900080008001C
:102A3000080007000700060007000700070007005E
:102A4000060006000600060005000500050005005A
:102A5000050005000500050005000500050005004E
:102A6000050005000500050005000500050005003E
:102A70000500050004000400040004000400040034
:102A80000400050006000700070006000600060017
:102A90000500050005000400040004000400040013
:102AA0000400040004000400040003000300030009
:102AB00003000400040005000600060007002800CB
:102AC00069008900A900AA00A900AA00CA00CA00DA
:102AD000AA00A900A900A900A900EA002B014B0146
:102AE0006C014B01EA00A900680027000600040001
:102AF0000300030004004700A800EA00EA00C90040
:102B0000880068002600060004000400030002009C
:102B100001000000000000000000000000000000B4
:102B200000000000000000000000000000000000A5
:102B30000000000000000000000000000000000095
:102B40000000000000000000000000000000000085
:102B5000000000000000000001000100020023004E
:102B600043006400640885080000000000000000C5
:102B70000000000000000000000000000000000055
:102B80000000000000000000000000000000000045
:102B9000000001002500923BBA9E5BC7FDE7FDEFF8
:102BA0009BD71AAFBA9EF96D58555755985577551A
:102BB000374DF744D73CD73C1745F744D73C9734BB
:102BC000762C9734B73476345634152CF52B952360
:102BD0001313B20A510231028F01ED004A0029009D
:102BE00028000600050006006A006E01100231028E
:102BF00051025102CF010D018B006A006A006A0088
:102C00004A004A004A004A00290029000900080039
:102C1000080008000700070007000700070007007A
:102C20000700060006000600060006000600050074
:102C3000050005000500050005000500050005006C
:102C4000050005000500050005000500050005005C
:102C5000050005000500040005000500040004004F
:102C60000400050006000700070006000500060036
:102C7000050005000500050005000500040004002E
:102C80000400040004000400040004000300030026
:102C900003000400040005000600060007002800E9
:102CA000490089008900A900AA00AA00CA00CA0038
:102CB000AA00AA00AA00AA00AA00EA002B018C011F
:102CC000AC018C016B012B01E90088004700060074
:102CD000050005000500260088000A010A01E90038
:102CE000A800870047000600050004000300030059
:102CF00002000100010001000000000000000000CF
:102D000000000000000000000000000000000000C3
:102D100000000000000000000000000000000000B3
:102D200000000000000000000000000000000000A3
:102D3000000000000000000001000100020023006C
:102D400043006400650885080000000000000000E2
:102D50000000000000000000000000000000000073
:102D60000000000000000000000000000000010062
:102D7000010001000300B24B5BB71AB7BCD7DCDF20
:102D80007BC7FAA67A8ED865174DF7441745174DBD
:102D9000F73CB7347734772C9734973477347734DB
:102DA0009734B734B73C96349734562C152C95236A
:102DB000B20A3102AF012D010D018A00080007009F
:102DC000060005000500050028000D01D001510A8C
:102DD000720A5102F0014D01AC008B006B006A00D9
:102DE0006A006A004A004A004A00290009000900F6
:102DF0000800080008000800080008000800070094
:102E00000700070006000600060006000600060090
:102E10000600060006000600060006000600060082
:102E20000500050006000600050005000600060076
:102E30000600060006000600060005000400040067
:102E40000500050006000600050005000500060057
:102E5000060005000500050004000500050005004A
:102E60000400040004000400040004000400040042
:102E70000400040004000400050006000700270009
:102E800028006900890089008A00AA00CA00CA00D7
:102E9000CA00CA00AA00AA00AA00CA000B016C015D
:102EA000AC01AD01AD01AC016B012B01CA00880082
:102EB0002700270027006800EA004B014B010A01A8
:102EC000A900880047002700060005000400040050
:102ED00003000200010001000100000000000000EA
:102EE00000000000000000000000000000000000E2
:102EF00000000000000000000000000000000000D2
:102F000000000000000000000000000000000000C1
:102F1000000000000000000001000100020023008A
:102F200043006408840885080000000000000000D9
:102F30000000000000000000000000000000000091
:102F4000000000000000000000000100010001007E
:102F5000010001000400176DBBC71BAF3BBF7BC75F
:102F60001BAF9A963A7E985DF744B63C9634B734D8
:102F700096349734772C572C36243524362C762CDF
:102F8000B734D83CD83C9734362C162CD52B541B50
:102F9000D30AF0012E01CC006B004A0008000700A4
:102FA000060005000500050006008B006E01510AB1
:102FB000510A510A11028F010D01AB008B008B00E9
:102FC0008B004A004A004A002A002A002A00090011
:102FD00009000800090029002A000900080007006C
:102FE00007000700070007000700070006000600AB
:102FF00006000600060006000600060006000600A1
:103000000600060006000600060006000600060090
:103010000600060006000600060005000500050083
:103020000500050005000500050005000500060077
:103030000600050005000500040005000500050068
:10304000050005000500040004000400040004005D
:103050000400040004000400050006000600070048
:103060002700480069008900AA00CA00CA00CB00F6
:10307000CA00CA00AA00CA00A900A900EA004B01C0
:103080008C01CD01ED09ED09CD01AC016C010A0106
:103090008800470027008800EA006B018C012B01A3
:1030A000CA008800670047002700050004000400EC
:1030B0000400030002000100010001000000000004
:1030C0000000000000000000000000000000000000
:1030D00000000000000000000000000000000000F0
:1030E00000000000000000000000000000000000E0
:1030F00000000000000000000100010002002300A9
:10310000430064088408A5080000000000000000D7
:1031100000000000000000000000000000000000AF
:10312000000000000000000001000100010001009B
:103130000100010003006B09D65CBA9EFAAE3BBFEA
:10314000BA963A76196E785DF73C7634562C562C42
:10315000562C762C7734562C15241524562C97345F
:10316000D73C384D184D973CF52B951B541B13132A
:10317000F312310A6F018B000800070008000700F6
:10318000060005000500050005000700CC00F00161
:103190003002310251021002AF012D01AC008B0050
:1031A0006B006B004A004B002A002A004B002A00EB
:1031B000290029004A004A004B002A0009000800A3
:1031C00008000700070007000700070007000700C6
:1031D00007000600060006000600060006000600BE
:1031E00006000600070007000700070007000700A9
:1031F000070007000600050006000600060005009F
:103200000500050005000500050005000500060095
:103210000600060005000500050005000500050084
:10322000050004000500050004000400040004007B
:103230000400040004000400050005000600060068
:1032400006002800490089008900AA00CA00CA00B7
:10325000CA00CA00CA00AA00A900AA00CA002B011D
:103260006C01AD01CD01ED01ED09ED09CD016B0161
:10327000E9008800470048006800C9004B014B0185
:103280000A01C90088006700470026000600050003
:10329000050004000300020002000200010000001B
:1032A000000000000000000000000000000000001E
:1032B000000000000000000000000000000000000E
:1032C00000000000000000000000000000000000FE
:1032D00000000000000000000000010022002300A8
:1032E000630864088508A5100000000000000000C5
:1032F00000000000000000000000000000000000CE
:1033000000000100010001000100010002000100B5
:10331000020002000300A900754C3BB79BCF7BC79E
:10332000DA9EF96D985D3755D74456349734573443
:10333000362C762C9734973497349734D73C184DE5
:1033400078559855584DB734F623541BF30AF312A9
:10335000131331024E016A00060006000700060042
:103360000600050006000500050006006A006E0163
:10337000100211027102910A11028F010D01EC007D
:10338000AC008B006B004B004B002B004B004B0044
:103390004A004A004B004B006B002B00290009003B
:1033A00008000800080007000800070007000700E1
:1033B00007000700060006000600070007000700D8
:1033C00007000700070007000800070007000700C4
:1033D00007000600060006000600060006000600BC
:1033E00006000600050005000500050005000600B2
:1033F00006000600060006000600050005000500A0
:103400000500050005000500050005000400040096
:103410000400040004000400040005000500050089
:10342000060007002800690069008900A900AA00B9
:10343000AA00AA00AA00A900A900AA00CA00EA00DE
:103440002B014C018C01AC01CD09EE09EE09CD0137
:103450006B01EA00A80088006800A9004B01AC01DC
:10346000AC012A01A9008800680047002700260057
:103470000600050004000300030003000200000032
:10348000000000000000000000000000000000003C
:10349000000000000000000000000000000000002C
:1034A000000000000000000000000000000000001C
:1034B00000000000000000000000010002002300E6
:1034C000630864088508A5100000000000000000E3
:1034D00000000000000000000000000000000000EC
:1034E00000000100010001000200010002000200D2
:1034F000020002000500B3433BAFBCDFFDF7DCDF99
:103500005BBF598E585DF744D644F744184D1845B3
:10351000B73CB634F73C384D5855795DB95DF9651F
:103520001A763A76D965D7441624751BB51BB52390
:10353000F41211020E014A00060006000700060000
:103540000600050006000500050006000900CC0085
:10355000AF0110025102B30A7102D0012E010D0118
:10356000EC00AC00AC008B006B004B004B004B0040
:103570004B006B006B006B006B004B002A002900B6
:1035800029000900090008000800080008000800D8
:1035900007000700070006000700070007000700F4
:1035A00007000700070008000800080008000800DE
:1035B00007000700060007000700060006000600D7
:1035C00006000600050005000500050005000600D0
:1035D00006000600060006000600060006000600BB
:1035E00006000600060006000500050005000400B0
:1035F00004000400040004000400040004000400AB
:1036000005000600070028004800690089008900BD
:103610008900AA00AA00AA00AA00CA00EA000A01BA
:103620000B012B016C018C01AD01CD01ED09CD0128
:10363000AC014B010A010A010B012B01AC01ED09A0
:10364000ED096C01E900A8008800680068004700E7
:103650002700060005000400030003000300020029
:10366000000000000000000000000000000000005A
:10367000000000000000000000000000000000004A
:10368000000000000000000000000000000000003A
:1036900000000000000000000000010022004200C5
:1036A00063086408A508C5100000000000000000C1
:1036B0000000000000000000010001000100010006
:1036C00001000100010001000100020001000200F0
:1036D00002000200470096547BB7DDDFFDEFDCDF20
:1036E000BCCFFA9ED96D37555855B95DD965785517
:1036F000384D384D584D995D1A6E3A761A6E3A76B5
:103700003A765B76B965D8443634D523F62334133C
:10371000F0014E016B0007000600060007000700DD
:1037200006000600060006000500060008006B0003
:103730000D016E01D0013102510A31028F012E01BB
:103740004E012E01ED00AC008C006B006B006B0095
:103750006B006C008C008C008B004B002A002A0050
:1037600029000900090009000900090008000800F3
:103770000800070007000700070007000700070010
:1037800007000700080008000900090009000800F8
:1037900008000700070007000700070006000700F1
:1037A00006000600050005000600050006000600EC
:1037B00006000600060007000600060006000600D8
:1037C00006000600060006000600050005000400CD
:1037D00004000400040004000400040004000400C9
:1037E000050005000600070028004900690069007F
:1037F0008900AA00CA00CA00CB00EB000B012B0114
:103800002B012C014C016C018C01AD01CD01CC01CF
:10381000AC018C018C01AD01ED090D0A0D0A2E12CF
:103820000E12CC014B01C900C90088008800680055
:103830004700270006000500040004000300020002
:103840000100000000000000000000000000000077
:103850000000000000000000000000000000000068
:103860000000000000000000000000000000000058
:1038700000000000000000000000010022004200E3
:1038800063006408A508C5100000000000000000E7
:103890000000000000000000010001000100010024
:1038A000010001000200020002000100020002000B
:1038B000020002000500D122FA9E5CC75CBF5CBF1B
:1038C0009BD77BC7DB965A8619763A7E3A7EFA6595
:1038D000795579557955B9651A6E1A761A763A7608
:1038E0005B7EFA6D584D3624D623961B520A0E0184
:1038F0002A0008000700070007000600070007006D
:1039000006000600060006000600060029004B001F
:103910004A006A008B00AC00ED00B001B0016F01FD
:103920006F016F012F01EE00AC008C006C008C0069
:103930008C008C008C00AC008C006B004A004A00AC
:103940002A002900090029002900090009000900AE
:103950000900080008000800080008000800080026
:103960000800080009000800090009000900090012
:10397000080008000800080008000700070007000A
:103980000700070006000600060006000600060005
:1039900006000600060007000700060006000600F5
:1039A00006000600060006000600050005000500EA
:1039B00005000400040004000400040004000400E6
:1039C0000400050006000700080028002800480041
:1039D00049008900AA00CB00EB00EB002B012C0171
:1039E0004C014C014C016C016C018C01AC01AC012F
:1039F000CD01ED092E126F12D022D01ACF1ACF228C
:103A00008F1A0E0A8C012B01EA00CA00A900880057
:103A1000880068004700060005000400030003005A
:103A20000100000000000000000000000000000095
:103A30000000000000000000000000000000000086
:103A40000000000000000000000000000000000076
:103A50000000000000000000000001000100420022
:103A600063008408A408C5100000000000000000E6
:103A7000000000000100010001000100010002003F
:103A80000200020002000200020002000200020026
:103A9000020002000400F2227B86FBA6FB9E5BB7BD
:103AA000BCD79BC7FAAEFBA6DB9EBB969B8E7B86E4
:103AB0005A7EF96DD965F96D1A6EB95D995D1B76FF
:103AC000DA6D184DF62B720A3202D0098B0009000C
:103AD00008000700070007000700070007000700AD
:103AE0000600060006000600060008002A002A005C
:103AF0002900290029002A006B002E018F01B00146
:103B000090018F018F014E01ED00AD008C00AC00E3
:103B10008C008C008C00AC008C006C004B004B00C7
:103B20004A002A002900290029002900290009004B
:103B30000900090008000800080008000800080043
:103B4000090009000900290009000A002A000900EB
:103B50000900090009000800080008000700080023
:103B60000700070006000600060006000500050025
:103B70000600060006000700070007000600060012
:103B80000600060007000600060006000500050006
:103B90000500050004000400040004000400040003
:103BA00005000500060007000700070007000700E2
:103BB000280048006900A900EA000B012B012B0135
:103BC0004B016C018D018C018C018C018C018C01ED
:103BD0008C01AD010E0A8F1A1123312B512B512B61
:103BE000112B6F12ED098C014B010A01EA00A900AB
:103BF000A9008900680047000600040003000300D4
:103C000002000000000000000000000000000000B2
:103C100000000000000000000000000000000000A4
:103C20000000000000000000000000000000000094
:103C30000000000000000000000000000100420041
:103C400063008408A408C510000000000100010002
:103C5000010001000100010001000100020002005A
:103C60000200020002000200020002000300020043
:103C70000200020003006800EE11ED09F22A9B9693
:103C80001BB71BAFFBA6BA96FA9EFBA6FBA6DB965C
:103C9000DB96DB967B7E1A76B95D3845D73C773468
:103CA000372C7212CD004A002900080008000800D5
:103CB00007000700070007000700070007000700CC
:103CC000070007000600060006000800290009009A
:103CD0000900090009002A006B00AC002E018F01C9
:103CE000B001D00190014F010E01ED00CD00CD00DB
:103CF000AC008C00AC00CD00AD008C006B006B0004
:103D00004B004B004A002A00290029002900290005
:103D1000290029000900090009000900090009001B
:103D2000090029002A002A002A002A002A002A0065
:103D30002A002A00090009000800080008000800FD
:103D40000700070006000600060006000500060042
:103D5000060006000600070007000700070007002E
:103D6000070007000700070006000600060006001F
:103D7000050005000500050004000400040005001E
:103D80000500050005000600060006000700070004
:103D90000700280048006900CA00EB000B010B0176
:103DA0002B018C01AD01AD01AD018C018C018C01A9
:103DB0008D018D01CD014F121123522B723392339D
:103DC0009233F0226F12ED098C012B010A01EA00F7
:103DD000CA00C900A900680026000500040003000D
:103DE00002000100000000000000000000000000D0
:103DF00000000000000000000000000000000000C3
:103E000000000000000000000000000000000000B2
:103E1000000000000000000000000000010022007F
:103E2000630063088408C510000000000100010061
:103E30000100010001000100020002000200020076
:103E40000200020002000300020002000200020061
:103E50000300030003000300030003002700B43342
:103E6000F9655A7E5A865A86DB961BA71BAFBA960F
:103E70009B8E5A86995DD73C572C582C7734551B0E
:103E80006F0129000800070007000700080008006C
:103E900007000700070007000700070007000700EA
:103EA00007000700070006000600060007000700DD
:103EB0000700090009004A006C008B008B008C0091
:103EC000CD000D012E012F012F010E010E010E015B
:103ED000CD00AD00AD00CD00CD008C006C008B009E
:103EE0006B006B004B004A002A00290029002900C2
:103EF0002900290029002A002900290009000900B9
:103F000029002A002A004A004B002A002A004B0000
:103F10004B002A002A002A000900090009000800B5
:103F2000080007000700060006000600060006005D
:103F30000600060007000700070007000800080049
:103F4000070007000700060006000600060006003E
:103F50000600050005000500050004000500050039
:103F60000500050005000600060006000600060024
:103F700007000700280048008900AA00CA00CA00FC
:103F80002B014C018D01AD01AD01AD01AD01AD01C4
:103F9000AD01AD01ED096F1A3123722BB333B33389
:103FA000B333522BD01A2E12ED018C012B012B01B1
:103FB0000B010B01EA00A900470006000400030002
:103FC00002000100000000000000000000000000EE
:103FD00000000000000000000000000000000000E1
:103FE00000000000000000000000000000000000D1
:103FF000000000000000000000000000010022009E
:10400000630063088408A51001000100010001009D
:104010000100010001000100020002000200020094
:10402000020002000200020003000300030003007C
:1040300003000300030003000400050004008A00DD
:10404000D312595539765A7E9B8EDB9EDB9EBB8EF2
:104050005A7EBA5D9523D1016F014E01F109900995
:104060006B000700070007000800090009000800AE
:104070000700070007000700070007000700070008
:1040800007000700070007000600070007000700F9
:104090000700070029004B006B00290008000900F9
:1040A00009002A008C000E016F016F016F016F0182
:1040B0004E01EE00CE00ED00AD008D008D008C00B5
:1040C0008C008C006C004B002A002A002A002A0079
:1040D0004A004A002A004B004A002A002A00290010
:1040E0002A004A004B006B004B004B004B004B007A
:1040F0006B004B004B002B000A000900090009006F
:10410000080008000700060006000600060006007A
:104110000700070007000700070008000800090063
:104120000800080007000700070007000700070055
:104130000600060006000500050005000500050054
:104140000500050005000500060006000600060043
:1041500006000600070008002900480089008900C1
:10416000CA002B014C016D018D01AD01AD01CD01E6
:10417000CD01CD010E0A901A322BB333F33BD3336A
:104180009233512BD01A2E12ED09AD01AC016B0107
:104190006C016B012B01CA006800260005000400B9
:1041A000020001000000000000000000000000000C
:1041B00000000000000000000000000000000000FF
:1041C00000000000000000000000000000000000EF
:1041D00000000000000000000000000001002200BC
:1041E000420083088408A5080100010001000100C5
:1041F00001000200020002000200020002000200B0
:10420000020002000200020003000300030003009A
:10421000030004000400040004000400050006007C
:104220004800F31A5955DA65995DFA6D1B9F1C9F7A
:10423000194D751B2E010A000800070028002900EF
:10424000080006000700070029002A0009000800EE
:104250000700070007000700070007000700070026
:104260000700070007000700070007000700070016
:104270000700070029006B004B0009000900090036
:1042800009000A006C002F01B001D101D101D10158
:10429000B0014F012E010E01CD00AD00AD00AD000B
:1042A000AD00CD00AD008C006B004B004B004B000F
:1042B0004A004B004B004B004B004B004B002A00C8
:1042C0002A004B006B006B008B008B008B008B0077
:1042D0008C008C006B002A000A000900090009000C
:1042E0000900080007000700070007000600070094
:1042F000070008000800080008000800080029005E
:10430000290009000800080007000700070007004F
:104310000600060006000600050005000500050071
:104320000500050005000500050006000600060062
:104330000600060006000700280028004800690063
:104340008900EA002C014C016C018D01CD01CD01E9
:10435000CD01CE090E0A901A522BD33BF43BD33B2E
:10436000B333312B901A2E120E0ACD09CD01AC01B8
:104370008C016B012B01EA00890027000600050073
:104380000400020001000100000000000000000025
:10439000000000000000000000000000000000001D
:1043A000000000000000000000000000000000000D
:1043B00000000000000000000000000001002200DA
:1043C000420063008408A50801000100010002000A
:1043D00002000200020002000200020002000200CD
:1043E00003000300030003000300030003000400B4
:1043F0000400040004000400050005000500050099
:10440000050029006D09CF09720AF62BFA65F84CF0
:10441000F101AC00080007000700070007000700D3
:1044200007000600070008002A002A00080007000D
:104430000700080007000700070007000700070043
:104440000700070007000700080007000700070033
:104450000700070008002A002A00090009002900B7
:10446000090029006B000E01D10112023202320252
:10447000110290016F012E01EE00CD00CD00EE0083
:10448000EE000E01EE00CD00AD008C006C006B0064
:104490006B006B006B006B006C006C008C006C00A0
:1044A0006B006C008C006C008C008C008C008C000D
:1044B0008C008D008C004B002A000A000A000A00C4
:1044C00009000800080007000700070006000700B1
:1044D0000700080009000900080009000900090098
:1044E000290029000900080008000800070007004B
:1044F000070006000600060006000600050005008D
:104500000500050005000500050005000500060082
:104510000600060006000600070007002700280026
:104520006900A900EA000C012C014C018D01CD01AC
:10453000EE010E0A4F12D01A722BD33BF33BD33B42
:10454000B333522BB01A2E120E0A0E0A0E0ACD09E0
:10455000AC018C014B010A01A900470006000600CE
:104560000400030002000100010000000000000040
:10457000000000000000000000000000000000003B
:10458000000000000000000000000000000000002B
:1045900000000000000000000000000001002200F8
:1045A000420063008408A408020002000200020026
:1045B00002000200020002000200020002000200EB
:1045C00003000300030003000300030003000400D2
:1045D00004000400040004000500050005000500B7
:1045E00005000600060007000800AC008F09AC00BB
:1045F0000900070007000700070007000700070081
:1046000007000700070008000A000900080007006B
:10461000080008000800080007000700070007005E
:10462000070007000700070007000800080008004F
:104630000800080008000800080009000900090037
:1046400009002A006B000E01D101320252027202EF
:104650005202F1018F014F010E010E010E010E01F8
:104660000E012E010E01EE00EE00CD00AD008C001B
:104670008C008C008C008C008C008D00AD00AD0097
:104680008C008D008D00AC00AD008D008D008D0084
:104690008D00AD008C006C004B002A000A002A003F
:1046A00009000900080007000700070007000700CD
:1046B000080009000A000A000900090008000800B3
:1046C00008000800090008000800080008000800A9
:1046D00007000700070006000600060006000600A7
:1046E00005000500050005000500050005000500A2
:1046F000050005000600060006000600070007008A
:1047000028006900AA00EB000B012C016C01AD012F
:10471000EE090E0A6F12F11A722BF33B3444144463
:10472000F33BB233112B6F1A4F124F124F122E0A56
:10473000ED09AC016C012A01C900680027002700BF
:104740000600050004000300020001000100010052
:104750000000000000000000000000000000000059
:104760000000000000000000000000000000000049
:104770000000000000000000000000000100010037
:1047800022004200840884080200020002000200A5
:104790000200020002000200020002000300030007
:1047A00003000300030003000300040004000400EE
:1047B00004000400050005000500050005000500D3
:1047C00005000600060006000600060006000600BA
:1047D00006000700070007000700070007000700A2
:1047E000070007000700070008000800070008008E
:1047F0000800080008000800080008000800080079
:104800000800080008000800070008000800080069
:104810000800090008000800090009000900090053
:104820002A004A008C000E01B00131029202B30A44
:1048300092023102B00170014F016F014F014E0130
:104840002F014F012F010E010E01EE00CD00AD0032
:10485000AD008D00AD00AD00AD00AD00AD00AD0010
:10486000AD00AD00CD00CD00CD00CD00CD00AD0040
:10487000AD00AD00AC006C004B002B002B002B00FA
:104880000A000A00090009000800080008000800E2
:1048900009000900090009000900080008000800D3
:1048A0000800080008000900290029002900290043
:1048B00009000800080007000700070006000600BE
:1048C00006000500050005000400040005000500C1
:1048D00005000500050006000600060006000700AA
:1048E000070028008900AA00CA000B016C01CE0154
:1048F0000F0A4F12B01A1123522BD33B5444544485
:1049000054443444B3331123D01AB01AB01A4F129E
:104910000D0AAC014B010A01C9008800680048007B
:104920004700270006000500040003000200010004
:104930000000000000000000000000000000000077
:104940000000000000000000000000000000000067
:104950000000000000000000000000000000010056
:1049600022004300630884080200020002000200E3
:104970000200020002000300030003000300030022
:104980000300030004000400040004000400040009
:1049900005000500050005000600050005000600ED
:1049A00006000600060007000700070006000700D3
:1049B00007000700070007000700070008000800BD
:1049C00008000800070008000800070007000800AA
:1049D0000800080008000800080008000800080097
:1049E0000800080008000800080008000800080087
:1049F00009000900090009002900290029002A00EE
:104A00002A006B00AD002F01F1017202920AD30A55
:104A1000B30A3102D00190016F016F016F014F01A4
:104A20004F016F014F014F012E010E01EE00CD002D
:104A3000CD00AD00AD00CD00CD00CD00CD00CD004E
:104A4000CD00CD00ED00EE00CD00ED00ED00ED005D
:104A5000EE00CE00AD006C006B004B002B004B0055
:104A60002B000A000A000A000A000A000A002A00B5
:104A70002A002A000A000A000900090008000800AC
:104A80000800080008000800290009002A004A0060
:104A90004A00090008000800070007000600060099
:104AA00006000500050005000400040004000500E0
:104AB00005000500050006000600060006000600C9
:104AC0000700280069008900AA00EB004C01AD0135
:104AD0000E0A7012D11A1123722BD33B744C954CD1
:104AE000954C754C544CB33331231023F0228F1A5C
:104AF0000E0A8C012B01EA00890088008800A900B9
:104B0000A900A800680027000600050003000100B6
:104B10000100000000000000000000000000000094
:104B20000000000000000000000000000000000085
:104B30000000000000000000000000000000010074
:104B40002200430064088408020002000200020000
:104B5000020003000300030003000300030003003E
:104B60000300040004000400040005000500050023
:104B70000500050005000500060006000600060009
:104B800006000600070007000700070007000700EF
:104B900007000700070007000700080008000800DA
:104BA00008000800080008000800070008000800C6
:104BB00008000800080008000800080008000800B5
:104BC0000800080008000800090009000900290081
:104BD0000900290029002A002A002A002A002A00A8
:104BE0004A006B00AD0070015202F312F41214136C
:104BF000F30A7202F101B0019001900170016F019E
:104C00006F0170016F016F012F012E010E010E0166
:104C1000EE00CD00CD00EE00CD00EE00EE00EE0087
:104C2000EE000E010E010E01EE000E010E010E014E
:104C30000E01EE00CD00AD008C006B006B006C002F
:104C40004B004B002A002A002B002A002B004B00AF
:104C50006B004B002A000A00090009000900090046
:104C60000900090008000800080009002A006A007D
:104C70006B004A0029000800080008000700060031
:104C800006000600050005000500040004000500FC
:104C900005000500050005000500060006000600E9
:104CA00006000700280069008900CA000B016D0199
:104CB000EE016F12F11A3123722BD33B754CB654AF
:104CC000D654D654B5543444923331231023B01AF9
:104CD0002E12AD014B01CA00AA00CA00EA00EA0088
:104CE000EA00EA00CA00A900480026000400030008
:104CF00002000200010001000000000000000000AE
:104D000000000000000000000000000000000000A3
:104D1000000000000000000000000100010002008F
:104D20002200430864088408020002000200030015
:104D30000300030003000300030003000400040059
:104D4000040004000400040005000500050005003F
:104D50000500050005000500060005000600070027
:104D6000070007000700070007000700070007000B
:104D700007000700070007000800080008000800F7
:104D800008000800080008000800080008000800E3
:104D900008000800080008000800080008000800D3
:104DA000080009000900090029000900090009009C
:104DB0000A00290029002A002A002A002A004B00A4
:104DC0004B008C000E011102F312741B751B34137F
:104DD0001413920A3102F101B001900170019001A7
:104DE00090016F016F016F014F012F012E010E0124
:104DF0000E010E010E010E010E010E010E010E013B
:104E00000E012E012F012E014F014F014F014F01C5
:104E10002E010E01EE00CD00AD008D008C006C0067
:104E20006B004B004B004B004B004B004B004B000A
:104E30006B006B006B004B002A00090009000800A2
:104E40000800090009000800290029004A008B0019
:104E5000AB006B002A0029000900080007000700CA
:104E60000700060006000500050005000400050017
:104E70000500050005000500050006000600060007
:104E800006000700080048006900AA00EB004C017A
:104E9000CE014F0AD01A3123722BF43B954CD654D5
:104EA000D65CD654D5549554143C9233512BD02211
:104EB0004F12CD018C012B010A012A014B014B013C
:104EC0002B012B01EA00EA00A8006800060004009C
:104ED00003000300030002000200010000000000C4
:104EE00000000000000000000000000000000000C2
:104EF00000000000000000000200010002000200AB
:104F00002300430064088408020002000300030039
:104F10000300030003000300030004000400040076
:104F2000040004000500050005000500050005005B
:104F30000500050006000500060006000600070043
:104F40000700070007000700070007000700080028
:104F50000800070008000800080008000800090011
:104F60000800080008000800080008000800090000
:104F700008000800080008000900090029002900AD
:104F800009000900090009000900090009000A00D8
:104F90002A002A002A002A002A002B002B004B009E
:104FA0006C00CD008F017202341395239523541B9E
:104FB0003413D30A730A3102D001B0019001900179
:104FC000900190016F0170014F012F012F012F01FE
:104FD0004F012E012E012E014E014F012F012F01F5
:104FE0002F012F014F014F016F016F016F016F0101
:104FF0006F014F010E01EE00CD00AD00AD008D0040
:105000006C006C006C008C008C008C006C004C0000
:105010006B008C008C006C004B000A000A00090039
:105020000900090009000900090009002A006B00B5
:105030008B008B006A004A002A0029002800080023
:105040000700070006000600060005000500050031
:105050000500050005000600060006000600060023
:10506000070007000700080049008900CA000B017B
:105070006D01EE099012F122722BF43B9554D65437
:10508000D65CD654B554B654954C1444B333312B36
:10509000B01A0E0ACD018C016C016C018C018C01DF
:1050A0006C014B010B010A01CA0088004700260071
:1050B00005000500050005000300030001000000D5
:1050C00000000000000000000000000000000000E0
:1050D00000000000010002000300030003000300C1
:1050E000230043086408840803000300030003004E
:1050F0000300030004000400040004000400040092
:105100000400050005000500050005000500050078
:10511000060006000600060006000600070007005D
:105120000700070007000700070007000800080045
:10513000080008000800080008000800080009002E
:10514000090008000800080008000800090009001C
:105150000900090009000900090009000A000A0005
:105160000A000A000A000A000A000A002A002A00AF
:105170002A002A002A002A004B004B004B004C005A
:105180008C00CE00B001F312541B741B9523551BE9
:105190003413F412B30A52021102F101D101B00129
:1051A000900190016F016F016F014F014F016F017D
:1051B0006F016F016F016F017001900170016F014C
:1051C0006F016F016F0190019001B001B001B0015A
:1051D00090016F012F010E01EE00CD00CE00CD0039
:1051E000AD00AD00AD00AD00AD00AD008C006C00B9
:1051F0008C00AC00AC00AC004B000A0009000900B8
:1052000009000900080008000800080009002A0039
:105210004A006B008B006B004A004A00290009001D
:10522000080007000700060006000500050005004D
:105230000500050005000500060006000600060042
:10524000060007000700080028006900AA00EB001C
:105250004C01AE012F0AB01A1123B333954CD6542A
:10526000D654B6549554B554B554754CD33B312BE4
:10527000D01A4F12EE09CD01AC018C018C01AC01AA
:105280008C014B012B010A01EA00A900890068008A
:105290004700270027000700050004000200010066
:1052A00000000000000000000000000000000000FE
:1052B00000000100020004000400040004002300B8
:1052C0002300440865088508030003000300040068
:1052D00004000400040004000400040005000500AC
:1052E0000500050005000500060006000500050094
:1052F000060006000600060007000700070007007A
:105300000700070007000800070008000800080061
:105310000900090008000800080008000900090049
:105320000900090008000900090009000900090036
:105330000900090029002900090029000A000A00C3
:105340000A002A002A002A002A002A002A002A002D
:105350002B002A002B004B004B004B006C006C0014
:105360008D00CD00D001551B952395239523751BEA
:105370003413F40AD30A920A52021202F101B00164
:10538000B001B0019001700190016F016F016F01D8
:105390006F017001900190019001B001B101B00165
:1053A00090019001B001B101D101F101F101F101D0
:1053B000D101B001900150012F010E010E010E012B
:1053C000EE00EE00CE00CE00CE00CD00AD00AD0070
:1053D000AD00CD00CD00AD008C002B000A0009000F
:1053E00009000900090008000700080009002A0058
:1053F0004B006B00AB00CC008B006B004A002A0016
:105400002900080007000700070006000500050046
:105410000500050005000500050006000600060061
:105420000600060007000700280048008900CB009E
:105430002C01AD012F0AB012322B93333444B54CFA
:10544000D554B554954C744C744C5444D33B322BC6
:10545000F0228F1A2F120E0ACD018C018C018C01C3
:105460006C014B012B010A01EA00C900A900A90047
:1054700088008800880068002700050003000200FB
:10548000000000000000000000000000000000001C
:10549000000002000300250045002500250024002F
:1054A000240045006508860803000300040004008A
:1054B00004000400040004000400050005000500C9
:1054C00005000500050005000500060006000600B1
:1054D0000600060006000700070007000700070097
:1054E000070007000800080008000800080008007E
:1054F0000800090009002800080009000900090047
:105500000900090009000900090009000A000A0051
:105510002A002A000A000A002A002A002A002A007B
:105520002A002A002A002A002A002A002A002A002B
:105530002A002B002B004B004B006C006C006C0011
:105540008D00CD00D0011413B6239423F62BD52360
:10555000751BF412D30AB30A920252021102D1014E
:10556000B001B001B00190017001700170016F01D4
:105570006F0170019001B001B001B001D101D10102
:10558000D101D101D101F101110212023202320224
:105590001102F101D10190016F012F012F010E01C4
:1055A0002F012F012F010F010E01EE00ED00CD00A4
:1055B000CD00CD00CD00AD00AD006C004B002A0049
:1055C0000A000A0009000900080008002A002A0051
:1055D0006B00AC00EC00ED00EC00CC00AB006A000E
:1055E0004A0029000800080007000600060006001F
:1055F0000500050005000500050006000600060080
:105600000600060006000700280048008900CA00BE
:105610000C016D010F0AB11A322B722BF33B55446A
:10562000B54CB554954CB554944C3444D333522BAB
:105630001123D01A901A2F12CD018C016C016C012C
:105640004B012B010B010B01EA00EA00C900A90084
:10565000A900C900C900A9006800260004000300D1
:105660000100010000000000000000000000000038
:1056700000000200240066006600460026002500A7
:10568000450066008608A608040004000400040023
:1056900004000400040004000500050005000500E6
:1056A00005000500050005000600060006000700CD
:1056B00007000700070007000700070007000700B2
:1056C0000800080008000800080009000900090097
:1056D0000800090009000900090009000900090083
:1056E0000900090009000900090009002A002A0030
:1056F0002A002A002A002A002A002B002B002B0057
:105700002B002A002A002A002A002B002B004B0025
:105710002B004B004B004B004C006C008C008C00AD
:105720008D00CE006F0152023413951BB523363421
:10573000F62B541BF40AD30AD30A93023202110245
:10574000F101F101D001B0019001900170017001EF
:1057500070019001B101B001D001D10111023202FA
:1057600032023202320252023202520272029302B8
:10577000730252021102F101B00150015001700197
:1057800070019001B00170014F012F010E01EE0078
:10579000CD00CD00CD00AD00AD00CD00CD006C0042
:1057A0002B002B004B004B00090009002A006B0066
:1057B000CC002E014E014E012E01ED00CC00AB00BD
:1057C0006B004A00290009000800070006000600D7
:1057D0000600060006000600060006000600060099
:1057E0000600060006000700070028006900AA005E
:1057F000CB002C01AD015012F11A522BB3331444DB
:10580000754CB554D554D654B5545444F33B9233E7
:10581000322BF122901A2E12CD018C016C014B011A
:105820002B012B010A010A010B010A01EA00CA003F
:10583000CA00EA00EA00CA00880047000500040028
:105840000200010000000000000000000000000055
:1058500000000200440086008700670067004700E0
:10586000460066008600A708040004000400040047
:105870000400040004000400050005000500050004
:1058800005000500060006000600060007000700E8
:1058900007000700070007000700080008000800CD
:1058A00008000800090008000800090009000900B4
:1058B000080009000A000A000900090009000A009E
:1058C0000A000A000A000A000A000A002A002A0048
:1058D0002A002A002A002A002A002B002B002B0075
:1058E0002B002B002B002B002B002B002B004B0040
:1058F0004B004C006C006C006C008C008C00AD0008
:10590000AD00AD000E01900152021413B5235734BF
:10591000573495233413551B3413D40A72023202C0
:10592000110211021102F101D001B10190019001A7
:1059300090019001B001B001D101F1015202B30216
:10594000D30AD30AD30AD30AB30A9202920A930261
:10595000B302930273023202F101B001900190018F
:105960009001D101D101B00190016F012F010F0110
:10597000EE00CD00AD00AD00CD00EE000E01EE005A
:10598000AD008C008C006C002A000A002A00AC00DC
:105990002E018F01D001B0016F014E012D01EC00ED
:1059A000AC006B004A002A0029000800070007002D
:1059B00007000600060006000600060006000600B6
:1059C00007000600060007000700080048008900DD
:1059D000AA00EB004C01AE016F12D11A32239333AF
:1059E0001444554C754C955495543444F33B9333BF
:1059F000322BF1226F12EE09AC016C014B012B012D
:105A00000A010A01EA00EA000A010A010A01EA00A1
:105A1000EA00EA00EA00EA00A900480006000500E2
:105A20000300020001000000000000000000000070
:105A300001000300450066008700870067006700DB
:105A4000660067008800A808040004000400050040
:105A5000050005000500050005000500050005001E
:105A60000500060006000600060006000700070005
:105A700007000700070007000800080008000800EA
:105A800008000900080009000900090009000800D1
:105A900009000A000A00090009000A002A002A0079
:105AA0002A000A002A002A002A002A002A002B00C5
:105AB0002B002B002B002B002B002B002B002B008E
:105AC0002B002B002B002B004B004C004C004C00FB
:105AD0004C004C006C006C006C008D00AD00AD0003
