:020000040800F2
:10000000C80700209D01000827200008191A0008D1
:10001000252000087B070008A92500080000000033
:100020000000000000000000000000004D2000085B
:100030007D070008000000004B2000084F2000084A
:10004000B7010008B7010008B7010008B7010008B0
:10005000B7010008B7010008B7010008B7010008A0
:10006000B7010008B7010008B7010008B701000890
:10007000B7010008B7010008B7010008B701000880
:10008000B7010008B7010008B7010008B701000870
:10009000B7010008B7010008B7010008B701000860
:1000A000B70100083D21000831210008B701000810
:1000B00049210008B7010008B7010008B70100088E
:1000C000B7010008B7010008B7010008B701000830
:1000D000B7010008B7010008B7010008B701000820
:1000E000B7010008B7010008B7010008B701000810
:1000F000B7010008B7010008B7010008B701000800
:10010000B7010008B7010008B7010008B7010008EF
:10011000B7010008B7010008B7010008B7010008DF
:10012000B7010008B7010008B7010008B7010008CF
:10013000B7010008B7010008B7010008B7010008BF
:10014000B7010008B7010008B7010008B7010008AF
:10015000B7010008B7010008B7010008B70100089F
:10016000B7010008B7010008B7010008B70100088F
:10017000B7010008B7010008B7010008000000003F
:10018000B7010008B7010008DFF80CD000F074FADE
:1001900000480047092F0008C8070020064880478C
:1001A00006480047FEE7FEE7FEE7FEE7FEE7FEE75C
:1001B000FEE7FEE7FEE7FEE7DD2000088901000814
:1001C0002DE9F05F0546002092469B46884606468C
:1001D000814640241BE0284641464746224600F01F
:1001E00083F853465A46C01A914110D31146184617
:1001F000224600F06AF82D1A67EB01084F462246A6
:100200000120002100F061F817EB00094E41201E8B
:10021000A4F10104DFDC484631462A464346BDE8E6
:10022000F09F40EA01039B0703D009E008C9121FB1
:1002300008C0042AFAD203E011F8013B00F8013BA0
:10024000521EF9D27047D2B201E000F8012B491ECC
:10025000FBD270470022F6E710B513460A46044663
:100260001946FFF7F0FF204610BD421C10F8011B95
:100270000029FBD1801A704700F0004230F00040A6
:100280000AD0C10D01F56071C0F3160042EA0151B8
:10029000C20840071143704700200146704730B53F
:1002A0000B46014600202022012409E021FA02F534
:1002B0009D4205D303FA02F5491B04FA02F52844CE
:1002C000151EA2F10102F1DC30BD202A04DB203A28
:1002D00000FA02F1002070479140C2F1200320FA99
:1002E00003F3194390407047202A04DB203A21FA97
:1002F00002F00021704721FA02F3D040C2F120023F
:1003000091400843194670472DE9FE4F804681EA27
:100310000300C00F0C46009021F0004123F000457F
:10032000B8EB0200A94105D24046214690461C4642
:100330000B46024623F00040104347D0270DC7F379
:100340000A00C3F30A510290401A019040286BDA68
:10035000C3F3130040F4801B0098924620B10023A1
:10036000D2EB030A63EB0B0B01985946C0F1400234
:100370005046FFF7AAFF06460D4650465946019AD9
:1003800000F08CF910EB08006141002487EA11525B
:1003900084EAE7731A4340D0009A62B3019A012AB3
:1003A0004FEA075215DC001B61EB02014FF00042DF
:1003B00002EA0752CDE90042001C41F580113246A5
:1003C0002B4600F08CF903B0BDE8F08F4046214683
:1003D000F9E7001B61EB0201001C41F580130018D6
:1003E0005B412018A2F5001747EB030140EAD570E6
:1003F000B6196D4111E06D084FEA360645EAC07541
:100400004FEA0752001B61EB0201001C41F580110D
:1004100049084FEA30000019514132462B4603B0DB
:10042000BDE8F04F00F04CB90098012240000023D5
:10043000D0EB020263EBE073009821464FEAE074D0
:10044000B8EB000061EB0401E9E783F000435BE7F0
:1004500081F0004158E72DE9FE4F81EA030404F0E2
:10046000004421F0004100944FF0000B23F00043C2
:1004700050EA01045ED052EA03045BD0C3F30A548D
:10048000C1F30A552C44A4F2F3340194A0FB0254A6
:10049000C1F3130141F48011C3F3130343F4801338
:1004A00001FB024400FB034E840A970A44EA81548C
:1004B00047EA8357A4FB076802958D0A05FB078569
:1004C0004FEA932C04FB0C542705029D4FEA065873
:1004D00047EA1637B5EB08056EEB070C870E920E50
:1004E00047EA811742EA8312A7FB0201B6EB0B0130
:1004F00064EB00042B0D43EA0C335E1844EB1C50F4
:10050000DA465146E7FB0201C5F313044FEA0B3309
:1005100043EA14534FEA0432019C43EA0603A4F170
:100520000C040294009CCDE900B400F0D8F803B0AC
:10053000BDE8F08F00200146F9E72DE9F04D81EA92
:10054000030404F0004B21F0004514464FF0000A6C
:1005500023F0004150EA050220D054EA01021DD0E8
:10056000C5F30A570246C5F31303C1F31300C1F3E1
:100570000A5640F4801543F48013A7EB0608101BBD
:10058000D64608F2FD3873EB050002D308F10108E6
:1005900001E092185B41B8F1000F03DA0020014638
:1005A000BDE8F08D00204FF48011064684460EE031
:1005B000171B73EB050705D3121B63EB05030643FB
:1005C0004CEA010C49084FEA300092185B4150EAAE
:1005D0000107EDD152EA030012D082EA040083EA57
:1005E0000501084305D0101BAB4106D201220023B0
:1005F00006E000224FF0004302E06FF001025310CA
:100600001AEB06004CEB085110EB0A0041EB0B0112
:10061000BDE8F04D00F054B8C1F30A52C1F3130124
:1006200040F2FF3341F480119A4202DA0020014681
:10063000704740F233439A42A2F2334202DC524204
:10064000FFF752BEFFF741BE30B5041E71F1000442
:1006500004DB4FF00044404264EB0101141E73F1CF
:10066000000405DB1C464FF00043524263EB0403D9
:10067000994208BF904230BD064C074D06E0E06845
:1006800040F0010394E8070098471034AC42F6D3D9
:10069000FFF77EFD94300008B4300008202A06DB06
:1006A000CB17203A41FA02F043EAE07306E041FA40
:1006B00002F3D040C2F1200291400843194670472E
:1006C00010B5141E73F1000408DA401C41F100015A
:1006D00092185B411A4301D120F0010010BD2DE9B1
:1006E000F04D92469B4611B1B1FA81F202E0B0FAA8
:1006F00080F220329046FFF7E8FD04460F4640EABC
:100700000A0041EA0B0153465A46084313D01146EA
:1007100053EA010019D0C8F140025046FFF7E4FD4A
:1007200005460E46504659464246FFF7CEFD084361
:1007300005D0012004E020463946BDE8F08D0020B8
:10074000054346EAE0762C4337430A986305E40AFA
:10075000A0EB08000022FD0A44EA47540A3002D503
:1007600000200146E9E7010510196941DDE9084566
:1007700000196941BDE8F04DA2E7FEE770470000AF
:1007800070B5044600F0ECF80546601C02D0044841
:100790000078044400F0E4F8401BA042FAD370BD96
:1007A000080000202DE9F84FDFF87CB100224FF05F
:1007B00001084FF0030A4FF00F090BF1040E00BFC0
:1007C0000B6808FA02F42340A3426ED14D68022D53
:1007D00001D0122D0ED1D50800EB850CDCF820508D
:1007E0005607F70E09FA07F6B5430E69BE402E43C9
:1007F000CCF82060066855000F790AFA05FC07F06E
:10080000030726EA0C06AF40374307604E68012E07
:1008100005D0022E03D0112E01D0122E0ED18668E3
:10082000CF6826EA0C06AF40374387604668A64388
:100830000C79C4F30014944034434460C6688C6857
:1008400026EA0C06AC403443C4604C68E40065D52D
:10085000364C256845F480452560246822F0030560
:1008600004F480440094324C2E19D6F808489507B9
:100870002F0F09FA07F5AC432E4DA84201D10025F0
:1008800024E02D4DA84201D101251FE02B4DA842A7
:1008900001D102251AE02A4DA84201D1032515E015
:1008A000284DA84202D1042510E037E0264DA84289
:1008B00001D105250AE0254DA84201D1062505E014
:1008C000234DA84201D1072500E00825BD4025435E
:1008D000C6F80858DBF800405D464E689C43F603B6
:1008E00000D51C432C60DEF8004075464E689C43E2
:1008F000B60300D51C432C600B4D08352C684E68A0
:100900009C43F60200D51C432C60074D0C352C6827
:100910004E689C43B60200D51C432C60521C102A22
:10092000FFF44EAFBDE8F88F003C01404438024070
:100930000030014000000240000402400008024074
:10094000000C024000100240001402400018024057
:10095000001C02400AB1816170470904FBE70000F6
:1009600001488068704700000800002070B504004E
:1009700004D094F83D00002510B106E0012070BDC0
:1009800084F83C50204600F0C1F9242084F83D0052
:100990002068016821F00101016000F023FB334968
:1009A0002268B0FBF1F15160314A6368934206D985
:1009B0004FF4967359434FF47A73B1FBF3F1236804
:1009C000491C1962616891420BD84900B0FBF1F2F1
:1009D000C2F30B02042A01D2042019E0B0FBF1F0AB
:1009E00016E0A3689BB301EBC10202EB0112B0FB5E
:1009F000F2F242F48042120530D04BB301EBC10257
:100A000002EB0111B0FBF1F040F4804040F40040F3
:100A10002168C861D4E90701084321680860D4E966
:100A20000310084321688860D4E905010843216860
:100A3000C8602068016841F0010101602564202040
:100A400084F83D00256384F83E50002070BD00E02E
:100A500006E001EB4102B0FBF2F2CCE70120D7E760
:100A600001EB4101B0FBF1F0D0E7000040420F0084
:100A7000A08601002DE9FF4F81B099468B460446C0
:100A80004FF00108FFF76CFF054694F83D00202861
:100A90007BD1192301224D492046009501F043F8EE
:100AA000002872D194F83C0001286ED0012084F80F
:100AB0003C0020680168C90703D1016841F00101C9
:100AC00001602068016821F400610160242084F83D
:100AD0003D00002626643E48E06220272068016829
:100AE00041F4807101604B4600224FF00111204615
:100AF000009501F018F8002858D121680BF0FE008D
:100B00000861FFF72DFF2168054648694969C0F370
:100B1000400094F83D20C1F380214FF0A00A12E07C
:100B2000B9F1000F04D0FFF71BFF411B494501D964
:100B300084F83DA0216848694969C0F3400094F8F1
:100B40003D20C1F38021084301D1A02AE8D184F8D7
:100B50003D7020684169C943890717D4016841F491
:100B600000710160206841698069192301221749D9
:100B70002046009500F0D7FFC0B984F83D7084F896
:100B80003C60002005B0BDE8F08F1DE0016841F435
:100B90000071016021686FF48060486119230122AF
:100BA0000A492046009500F0BEFF08B10320E9E79E
:100BB0004146039808F1010881428FD384F83D70C3
:100BC00084F83C600120DDE70220DBE70200100032
:100BD0000000FFFF2DE9F84F1F4690468A46044665
:100BE000DDF82890FFF7BCFE064694F83D0020286B
:100BF0007ED11923012243492046009600F093FF3D
:100C000000287DD194F83C00012879D0012084F897
:100C10003C0020680168C90703D1016841F0010167
:100C200001602068016821F400610160212084F8DE
:100C30003D00102084F83E0000252564C4F824807F
:100C400067853148E062608D208533464A465146CB
:100C5000204600F0F7FE28B1206C84F83C500428B0
:100C60004CD00DE0206841698069009030E0324648
:100C70004946204600F0CCFF28B1206C042838D02B
:100C80000320BDE8F88F606A411C6162216800782A
:100C90000861608D401E6085208D401E80B22085D9
:100CA00021684A69D24352070BD450B1606A421C92
:100CB000626200780861608D401E6085208D401E54
:100CC000208532464946204600F006FF0028D4D150
:100CD000208D0028CBD154F83D0B016841F4007100
:100CE0000160202004F81E09E57765770020C8E739
:100CF00006E02068016841F4007101600120C0E74E
:100D00000220BEE7020010000000FFFF10B586B011
:100D1000044614216846FFF79DFA1349206888426B
:100D200020D11248016841F0020101600068694663
:100D300000F002000590C0200090122001900120D8
:100D4000029003200390042004900948FFF72AFD35
:100D500006481030016841F400110160006800F499
:100D60000010059006B010BD00540040303802401D
:100D70000004024002488168027811448160704793
:100D8000080000200B4810B5016841F400710160B3
:100D9000016841F480610160016841F48071016083
:100DA000032000F06DF8002000F006F800F024F8B1
:100DB000002010BD003C024070B50D4D04464FF4BC
:100DC0007A712878B1FBF0F00A490968B1FBF0F0BC
:100DD00000F0F4FA48B9102C07D200222146501E28
:100DE00000F02EF800206C6070BD012070BD000086
:100DF00008000020440000200A4808B5016841F4BA
:100E000080410160006800F4804000900548001FA8
:100E1000016841F080510160006800F0805000904E
:100E200008BD00004438024000F01F02012191403B
:100E30004009800000F1E020C0F800117047000078
:100E4000F0B40E4B1B680C46C3F30223C3F1070535
:100E5000042D00D90425191D072901D2002300E023
:100E6000DB1E012606FA05F1491E214099409E40ED
:100E7000761E16403143F0BC01F0D7B80CED00E00F
:100E8000064900F0070208684FF6FF03184040EAE1
:100E90000220034A10430860704700000CED00E098
:100EA0000000FA05704700002DE9F0470E460500E6
:100EB00065D0DFF81481D8F80000F7B200F00F0019
:100EC000B04207D288F80070D8F8000000F00F0098
:100ED000B04254D128683D4C810712D5400703D554
:100EE000206840F4E05020602878000703D520688F
:100EF00040F4604020602068A96820F0F0000843BA
:100F000020602878C0072DD030496868083901284A
:100F100012D0022813D0032811D0096889070029AC
:100F20002DDA216821F0030101432160FFF718FD4C
:100F3000814641F2883A0EE009688903EFE70968C3
:100F40008901ECE7FFF70CFDA0EB0901514502D93F
:100F50000320BDE8F0872068696800F00C00B0EB62
:100F6000810FEFD1D8F80010404601F00F01B142D7
:100F700007D90770006800F00F00B04201D00120CF
:100F8000E7E72878400705D52068E96820F4E050B5
:100F9000084320602878000706D52068296920F4D6
:100FA000604040EAC100206000F03CF82168084A37
:100FB000C1F30311515CC840064908600020FFF7E7
:100FC000FBFE0020C5E70000003C0240083802405C
:100FD0007C3000084400002001490120C8647047AB
:100FE000000047420448054900680968044AC1F303
:100FF0008221515CC84070474400002008380240FC
:101000008C3000080448054900680968044AC1F3A7
:101010004231515CC840704744000020083802400B
:101020008C300008154810B5006810F00C02144808
:1010300013D04110042A0FD0082A0ED10F4C241FC0
:101040002268236802F03F025B0207D52068C0F3E4
:101050008810A0FB010106E0084610BD2168C1F31D
:101060008811A1FB00010023FFF7AAF82168C1F352
:101070000141491C4900B0FBF1F010BD08380240A5
:101080000024F400054810B50068000605D5FFF7F8
:1010900009FF02498020891C087010BD0C380240ED
:1010A0002DE9F84F050076D02878DFF8F8B2BE4C6D
:1010B000C00749D0DBF800105846C1F3810101296F
:1010C00008D00068C0F3810002280AD1201D006802
:1010D000400206D52068800336D568680028E2D033
:1010E00032E06868B0F5803F10D0B0F5A02F2068DE
:1010F00010D020F480302060206820F48020206010
:101100006868A0B1FFF72CFC06460CE0206840F4AC
:101110008030F4E740F480202060F7E7FFF720FC00
:10112000801B642873D820688003F7D50CE0FFF794
:1011300017FC064605E000BFFFF712FC801B642881
:10114000F0D820688003F7D42878DFF86082800721
:101150004FF000093ED5DBF80010584611F00C0F97
:1011600009D00068C0F3810002280BD18D48001F10
:101170000068400206D42068800715D5E868012879
:1011800009D111E0E868B8B10120C8F80000FFF704
:10119000E7FB064605E002E1FFF7E2FB801B0228C1
:1011A000C0D820688007F7D52068296920F0F800AA
:1011B00040EAC10020600DE0C8F80090FFF7D0FBC6
:1011C000064604E0FFF7CCFB801B02281FD82068EE
:1011D0008007F7D42878000722D5724E74486969D1
:1011E0006C3671B101210160FFF7BAFB074604E0DC
:1011F000FFF7B6FBC01B022809D830688007F7D577
:101200000EE0C0F80090FFF7ABFB074605E083E077
:10121000FFF7A6FBC01B02287ED830688007F7D4F2
:101220002878400768D5DFF87CA100270AF1380A42
:10123000DAF80000C0000BD4DAF8001041F0805159
:10124000CAF80010DAF80000012700F08050009082
:10125000584E3068C00510D4306840F4807030605B
:10126000FFF77EFB009005E0FFF77AFB0099401A3C
:10127000022851D83068C005F6D54A4EA8686836AD
:1012800001280FD00528306810D020F00100306010
:10129000306820F004003060A868B8B1FFF760FB48
:1012A00000900FE0306840F00100F4E740F00400E7
:1012B0003060F7E7FFF754FB0099411A41F288309C
:1012C000814264D830688007F4D50EE0FFF748FB10
:1012D000009007E0FFF744FB0099411A41F2883083
:1012E000814254D830688007F4D42FB1DAF8001066
:1012F00021F08051CAF80010A869C0B3DBF80010D3
:10130000C1F3810102294AD00228484607D0C8F813
:101310006000FFF725FB00E039E005463AE047466C
:10132000C8F86000FFF71CFB064604E0FFF718FB57
:10133000801B02282BD820688001F7D4D5E907014B
:101340000843A96A1C4A490802EB01416A6A41EA5A
:101350008211084395F82C1040EA01611148001FE2
:10136000016001203866FFF7FBFA054605E014E04E
:10137000FFF7F6FA401B022809D820688001F7D54C
:101380000BE000BFFFF7ECFA401B022802D9032054
:10139000BDE8F88F20688001F4D40020F8E7012030
:1013A000F6E70000083802400038024000004742DB
:1013B000800E4742007000400000FFFF10B5401E45
:1013C000B0F1807F01D3012010BD4FF0E0246061B7
:1013D0000F21601700F029FE0020A0610720206186
:1013E000002010BD7047704730B590F83820012AB2
:1013F00020D0012280F83820022380F83930036899
:101400005C6824F070045C6003685C680D682C43C1
:101410005C6003689C6824F080049C6003689C689E
:1014200049680C439C6080F83920002180F838100E
:10143000084630BD022030BD10B5040003D094F83A
:10144000390010B107E0012010BD002084F83800F9
:10145000204600F00DF8022084F83900211D206894
:1014600000F078FE012084F83900002010BD000053
:1014700010B586B0044614216846FEF7EBFE254AF7
:101480002168002091422ED123490A6842F00102CE
:101490000A60096801F0010105911F4914390A68C1
:1014A00042F010020A60096801F0100105914FF442
:1014B000007100910221CDE90110039001200490F8
:1014C00069461648FFF76EF9002211461920FFF70A
:1014D000B7FC1920FFF7A8FC002211461A20FFF7DD
:1014E000AFFC1A2012E0B1F1804F11D10A48001F61
:1014F000016841F0010101600068002200F0010074
:10150000059011461C20FFF79BFC1C20FFF78CFC6C
:1015100006B010BD000001404438024000100240F7
:101520000168CA6842F00102CA600068016841F0BF
:10153000010101600020704770B5044690F8380042
:10154000012817D0012584F83850022084F839008A
:101550002068826822F0770222F47F428260086865
:10156000502837D00DDC202859D005DC88B310284E
:1015700041D151E0022070BD302853D040283AD1EB
:101580003FE060282ED070280BD0B0F5805F03D0EC
:10159000B0F5005F2FD110E02068816821F00701CD
:1015A00015E0CB68D1E90121206800F033FE216805
:1015B000886840F0770088601DE0CB68D1E90121A0
:1015C000206800F027FE2068816841F48041816036
:1015D00011E01EE0CA684968206800F06BFE5021E7
:1015E000206806E0CA684968206800F074FE60213F
:1015F000206800F019FE84F83950002084F8380083
:1016000070BDCA684968206800F054FE4021206817
:10161000EFE700212068ECE710212068E9E72021AE
:101620002068E6E730212068E3E7704770B504469C
:10163000006801694FF00005C943890715D4C168E6
:10164000C943890711D4E91E016101202076206871
:1016500080698007204602D0FFF7E7FF04E000F032
:1016600098F8204600F096F8257620680169C9436D
:10167000490717D4C168C943490713D46FF004015F
:101680000161022020762068806910F4407F2046A6
:1016900002D0FFF7CAFF04E000F07BF8204600F01C
:1016A00079F8257620680169C943090716D4C1680D
:1016B000C943090712D46FF00801016104202076A4
:1016C0002068C0698007204602D0FFF7AEFF04E023
:1016D00000F05FF8204600F05DF82576206801698B
:1016E000C943C90617D4C168C943C90613D46FF0EA
:1016F00010010161082020762068C06910F4407F45
:10170000204602D0FFF791FF04E000F042F82046A7
:1017100000F040F8257620680169C943C90708D15F
:10172000C168C943C90704D1891E0161204600F080
:1017300032F820680169C943090609D4C168C94360
:10174000090605D46FF0800101612046FFF74AFECB
:1017500020680169C943490609D4C168C9434906DB
:1017600005D46FF040010161204600F037F8206891
:101770000169C94389060BD4C168C943890607D4E6
:101780006FF0200101612046BDE87040FFF72BBEDD
:1017900070BD7047704700F021B970B5044690F8ED
:1017A0003800012818D0012584F83850022084F828
:1017B0003900204600F040FD2068C16821F040015A
:1017C000C1602068C16821F48041C16084F839504B
:1017D000002084F8380070BD022070BD704770B5DD
:1017E000040004D094F83900002510B106E001206F
:1017F00070BD84F83850204600F022F8242084F888
:1018000039002068C16821F40051C160204600F011
:1018100075FD2068016921F49041016120684169EA
:1018200021F02A0141612068C16841F40051C16082
:10183000E563202084F8390084F83A00002070BD68
:1018400010B586B0044614216846FEF703FD13491F
:101850002068884220D11248016841F400310160BB
:10186000006800F4003005900D481038016841F020
:10187000010101600068694600F0010005900C203C
:101880000090022001900120029003200390072085
:1018900004900448FEF786FF06B010BD00440040E7
:1018A000403802400000024070B5054601F0A2FB3E
:1018B000364C01226188A069FFF74CF8012221888B
:1018C0006069FFF747F83248002601684E620068F9
:1018D0000169C943C907FBD1002221886069FFF76C
:1018E00039F82B486FF040023C3809E04B6A00EEB3
:1018F000103AB8EE400A84ED010A4E6201680A61AE
:1019000001680B69DB435B0603D40B69DB43DB0730
:10191000ECD194ED010AF6EE000A20EE200ADFED8C
:101920001D0A20EE200AF0EE000A84ED020A94ED72
:10193000020A30EE600AF2EE040A84ED020A94ED27
:10194000020A85ED030A94ED020A20EE200ADFED7B
:10195000120A85ED020A94ED020A80EE201ADFEDEC
:101960000F0A85ED041A94ED020A80EE201ADFEDCD
:101970000C0A85ED051A94ED010A85ED010A94ED36
:10198000010A80EE201A85ED001A70BD28000020A3
:101990008C030020287E0C3D0000C8425C8F224052
:1019A00000007A4410B501F025FB0A4C0022218882
:1019B0006069FEF7CFFF00226188A069FEF7CAFFC9
:1019C0000548FFF7ADFD0448BDE810403C30FFF787
:1019D000A7BD0000280000205003002010B50446D9
:1019E00001F008FB0A4821686FF001040269914286
:1019F00001D1084809E0C268914208D1418800221B
:101A00008069FEF7A7FF03483C380068046110BDF9
:101A1000280000208C030020FEE701684A69D243B9
:101A200052050CD46FF480624A61042101640021E4
:101A300040F8301F202242730173012070470020BC
:101A400070470000F8B50446C06A1E460D461746AA
:101A5000042807D0012805D010F5803F02D0206B64
:101A6000122804D12068016841F480710160134696
:101A700000224FF001112046009600F054F8A0B962
:101A80002069B0F5804F12D00620216800EAD510F9
:101A900040F0F000086133463A460E49204600F017
:101AA00073F838B1206C042811D00320F8BD05F07C
:101AB000FE0000E0E8B221680861064933463A4674
:101AC000891F204600F060F80028EBD1F8BD012006
:101AD000F8BD00000800010070B516460D4604462A
:101AE0001AE02046FFF799FF08B1012070BD681C7D
:101AF00012D025B1FEF734FF801BA8420CD954F850
:101B0000400F40F0200044F8100900202060202100
:101B100061732073032070BD20684069C043400793
:101B2000DFD4002070BD2DE9F0471E4690460D46DB
:101B30000446C1F30747DDF8209012E0701C10D076
:101B40002EB1FEF70DFFA0EB0900B04209D900202D
:101B500044F8300F20216173A07320730320BDE887
:101B6000F0872068012F0AD0806925EA0000000470
:101B7000000C06D000214145E0D00020EFE740698D
:101B8000F3E70121F7E700002DE9F0479A46914677
:101B90000D46044600264FF02008C1F307472AE00F
:101BA00020684069C043400512D42068016841F4B0
:101BB0000071016021686FF4806048610420206436
:101BC000266384F83D8084F83C600120BDE8F087FE
:101BD000B9F1FF3F0FD0B9F1000F05D0FEF7C0FEFD
:101BE000A0EB0A01494506D944F8306F84F80D800E
:101BF00026730320EAE72068012F07D0D0F81800E9
:101C000025EA00000004000CE0D0C9E74069F7E7CE
:101C100070B516460D4604461AE02046FFF7FDFE55
:101C200008B1012070BD681C12D025B1FEF798FEE6
:101C3000801BA8420CD954F8400F40F0200044F813
:101C4000100900202060202161732073032070BDE3
:101C500020684069C0430006DFD4002070BD00004A
:101C60000449082801D0002803D1C871202000F0C1
:101C7000F3B870471400002010B5012000F0C6F83A
:101C80000A20FEF77DFD03480021C170012181700B
:101C900010BD00001400002010B5012000F0B6F8BF
:101CA0004FF47A70FEF76CFD022000F0AFF80520CB
:101CB000FEF766FD282000F0A9F80520FEF760FD7C
:101CC0000C2000F0A3F80520FEF75AFD802000F05C
:101CD0009DF8BDE810404FF4FA70FEF751BD10B505
:101CE00004469AB010EE100AFEF7C6FA41EC100B4B
:101CF000214653EC102B684600F058FC0021684642
:101D000000F002F81AB010BD2DE9F047314D04463D
:101D1000002679B3012930D12F4F002047F8204009
:101D2000401C641C6428F9DB3868FEF79EFA2871B1
:101D3000DFF8A080A87808F1080808EB000111F886
:101D4000011C00F04BF8A97808F1040909EB010027
:101D500010F8014C1AE0641C00F07EF8E878401C92
:101D6000C0B2E870102805D1A8780121401C00F00D
:101D700035F8EE7020780028EDD1BDE8F08700BF7F
:101D800057F82400007800F067F8641C2879844232
:101D9000F6DBAA7808EB020010F8011C491E11F0CE
:101DA000FF0100F8011CE8D1012100F8011C09EB3A
:101DB000020111F8012C521CD2B201F8012C2B792E
:101DC0009A42DAD1102200F8012C01F8016C2E7130
:101DD000D3E70000140000206C010020094A907035
:101DE000421E012A0CD84A1E0F2A09D8064A02EBC5
:101DF0000010084410F8110C40F0800000F006B804
:101E000070470000140000205C30000838B5104C0A
:101E1000627800EA020102EA0010E27911431043FD
:101E2000617104F11002A07141F00403137051704C
:101E300040F004019170D07001F03AF8C820009091
:101E4000042304F1100221780248FEF7C3FE38BDD6
:101E500014000020FC02002038B5124C627800EA21
:101E6000020102EA0010E27911436171104341F06E
:101E7000050304F11002A071137041F001015170CB
:101E800040F00501917040F00100D07001F010F8B1
:101E9000C8200090042304F1100221780248FEF7C4
:101EA00099FE38BD14000020FC02002070B53220DD
:101EB000FEF766FC00F0FCFF054D4FF47A742346F4
:101EC000032229780348FEF7D5FD0028F7D170BD1D
:101ED00014000020FC02002070B586B01421684672
:101EE000FEF7B8F91E480024016841F08001016046
:101EF000016801F080010591016841F00101016074
:101F0000016801F001010591016841F010010160D3
:101F1000016801F010010591016841F008010160BC
:101F2000016801F008010591016841F002010160BA
:101F300000680C4E00F002004FF47045059000223E
:101F400029463046FEF706FD01200095CDE9010443
:101F5000694630460394FEF725FC06B070BD0000CC
:101F600030380240000C024010B58CB000240594BB
:101F700006940794142168460894FEF76BF91548F7
:101F8000099413490A940160A721C0E9011445F698
:101F90001B31C0E903144461FFF74EFA4FF480503F
:101FA000059005A90B48FFF7C7FA052000905020BF
:101FB000CDE901040F20049069460648FFF7EDFBC8
:101FC000099409A903480A94FFF70EFA0CB010BD52
:101FD000000001409C00002010B586B0002410488D
:101FE000009401940294039404944FF0804105946A
:101FF00001605321C0E901140921C0E90314FFF76E
:102000001BFA4FF48050009069460548FFF794FA98
:10201000049404A902480594FFF7E6F906B010BD40
:10202000D8000020FEE7FFF72DB80907090E0028A9
:1020300006DA00F00F0000F1E02080F8141D704770
:1020400000F1E02080F80014704770477047FEF7F9
:1020500091BE000030B593B030216846FEF7FAF823
:1020600014210CA8FEF7F6F81A480025016841F083
:1020700080510160006800F080501190164801689E
:1020800041F4804101600068022400F48040119016
:1020900001200090000401908001CDE9064008AACB
:1020A0000420A82182E813000B906846FEF7F8FF91
:1020B0000CA90F2081E831004FF4A0500F90E002EE
:1020C000109005210CA8FEF7EFFEFEF785FF13B078
:1020D00030BD0000403802400070004010480168E8
:1020E00041F4700101600F48016841F00101016095
:1020F0000C4A00210832116002680B4B1A40026042
:10210000031D0A4A1A60026822F480220260054810
:102110000C300160024958068039086070470000A1
:1021200088ED00E000380240FFFFF6FE103000248A
:102130000148FFF77BBA00009C0000200148FFF730
:1021400075BA00009C0000200148FFF76FBA00003C
:10215000D8000020F0B50268234B244D244E254FB3
:10216000254C4FF0804C984209D0604507D0A842DA
:1021700005D0B04203D0B84201D0A04204D122F031
:10218000700E4A6842EA0E0298421BD0604519D090
:10219000A84217D0B04215D0B84213D0A04211D0F7
:1021A000164DA8420ED0164DA8420BD0154DA84290
:1021B00008D0154DA84205D0144DA84202D0144DA8
:1021C000A84203D122F44075CA682A4302608A6893
:1021D000C2620A688262984201D0A04201D10969B4
:1021E000016301214161F0BD000001400004004095
:1021F00000080040000C0040000401400040014085
:10220000004401400048014000180040001C00400C
:102210000020004010B5846842EA032224F47F4481
:102220000A432243826010BD826822F070020A4392
:1022300042F007018160704730B403689A6822F069
:1022400070044A68224322F007040A6822439A6015
:102250004A6812F00F0F1FD11211082A1CD2DFE8B2
:1022600002F01B1B1B1B0B1D23040B69D1E9022170
:10227000006830BCFFF7CEBF0268136A146A24F00E
:102280000104146202689469096924F0F00444EAC4
:10229000011191610068036230BC70470A69896866
:1022A000006830BC00F006B80A698968006830BC74
:1022B00000F011B810B5036A046A24F00104046246
:1022C000846924F0F00444EA021423F00A020A4369
:1022D0008461026210BD10B5036A23F0100303622B
:1022E0008369046A23F4704343EA023224F0A003B2
:1022F00043EA01118261016210BD00002DE9F04145
:1023000004460068016921F44052E168114301610B
:102310002168C86849F20C6290432369A268E569A4
:102320001A4363692B431A430243CA602168486910
:1023300020F44072A06910434861E1696425B1F559
:10234000004F9748974A21684FF032083FD091429A
:1023500001D081427CD1FEF755FE00EBC00101EBBC
:10236000001061688900B0FBF1F6FEF74BFE00EB50
:10237000C00101EB001061688900B0FBF1F0B0FB17
:10238000F5F06FF01801484306EB800108EB0110EF
:10239000B0FBF5F000F0F006FEF734FE00EBC001F4
:1023A00001EB001061688900B0FBF1F0B0FBF5F0C3
:1023B00006EB0016FEF726FE00EBC00101EB001055
:1023C00061688900B0FBF1F7FEF71CFED2E0914294
:1023D00001D081423DD1FEF715FE00EBC00101EBBB
:1023E000001061684900B0FBF1F0B0FBF5F00601A8
:1023F000FEF708FE00EBC00101EB00106168490028
:10240000B0FBF1F7FEF7FEFD00EBC00101EB0010A1
:1024100061684900B0FBF1F0B0FBF5F06FF0180116
:10242000484307EB800108EBC100B0FBF5F000F07A
:10243000F80006EB4006FEF7E5FD00EBC00101EBFE
:10244000001061684900B0FBF1F7FEF7DBFD3CE0EE
:1024500055E0FEF7C7FD00EBC00101EB001061681D
:102460004900B0FBF1F0B0FBF5F00601FEF7BAFD54
:1024700000EBC00101EB001061684900B0FBF1F70F
:10248000FEF7B0FD00EBC00101EB001061684900F0
:10249000B0FBF1F0B0FBF5F06FF01801484307EB2B
:1024A000800108EBC100B0FBF5F000F0F80006EB8E
:1024B0004006FEF797FD00EBC00101EB00106168DC
:1024C0004900B0FBF1F7FEF78DFD00EBC00101EB19
:1024D000001061684900B0FBF1F0B0FBF5F06FF05F
:1024E0001801484307EB800108EBC100B0FBF5F091
:1024F00000F00700216830448860BDE8F081FEF7F5
:1025000071FD00EBC00101EB001061688900B0FBB8
:10251000F1F6FEF767FD00EBC00101EB001061680A
:102520008900B0FBF1F0B0FBF5F06FF01801484303
:1025300006EB800108EB0110B0FBF5F000F0F006AF
:10254000FEF750FD00EBC00101EB0010616889004F
:10255000B0FBF1F0B0FBF5F006EB0016FEF742FD24
:1025600000EBC00101EB001061688900B0FBF1F7DE
:10257000FEF738FD00EBC00101EB00106168890037
:10258000B0FBF1F0B0FBF5F06FF01801484307EB3A
:10259000800108EB0110B0FBF5F000F00F00A9E797
:1025A0000014014000100140FEE700000FB4084B8A
:1025B00010B504A902AA039800F0DEF8044602A9A7
:1025C000002000F070FC204610BC5DF814FB0000F9
:1025D000A72E000802E008C8121F08C1002AFAD17D
:1025E00070477047002001E001C1121F002AFBD193
:1025F000704700002DE9FF5F82B00021DDE9043063
:10260000020DDDF840B0034318D044F61050A2F29A
:10261000FF3242431514119801281FD0A5EB0B007F
:10262000401C5FEA000A4FF000064E4FDFF8389179
:10263000B046504615D5CAF1000413E011980124A4
:102640004AA3012801D16FEA0B010298119AC0E94F
:102650000031C0E9024206B0BDE8F09FCBF10000B6
:10266000DFE704460021404A491842EB0450CDE917
:10267000001012E0E00707D032463B46404649468C
:10268000FDF7E9FE8046894632463B46104619462C
:10269000FDF7E1FE06460F466410002CEAD1DDE9A5
:1026A0000401DDE90023BAF1000F06DAFDF7D3FEDD
:1026B00042464B46FDF7CFFE05E0FDF73EFF4246A2
:1026C0004B46FDF73AFF04460E460022284BFDF725
:1026D000BBFF03D84FF0FF30014607E00022254B37
:1026E00020463146FDF710FEFDF796FF102409E065
:1026F000002C0ADB0A220023FDF762FD039B303227
:102700001A55641E50EA0102F2D1641C039AC4F106
:1027100011031444119A012A03D0012208430DD158
:102720000AE0084304D000204FF0110B119072E72B
:10273000A3EB0B056D1E0DE05B4504DD4FF00002C1
:1027400005F1010504E003DA4FF00002A5F10105EF
:10275000002AECD002981199C0E90231C0E9004585
:1027600079E70000000014400000F03F3000000056
:102770000000F0430000E03F2DE9FF4F95B09B467D
:102780008946064600250FE2252877D100242746F2
:10279000F84A0121059400E0044316F8013F203B6C
:1027A00001FA03F01042F7D130782A2811D06FF0E7
:1027B0002F033078A0F13002092A16D8059A44F088
:1027C000020402EB820203EB42021044761C0590E5
:1027D000EFE759F8042B0592002A03DA504244F43B
:1027E0000054059044F00204761C30782E2816D14F
:1027F00016F8010F44F004042A280DD06FF02F02C0
:102800003078A0F13003092B09D807EB870302EBDE
:102810004303C718761CF3E759F8047B761C30781D
:102820006C280FD006DC4C2817D068280DD06A28F9
:1028300014D104E0742810D07A280FD10DE044F4AC
:1028400000140AE044F4801401E044F44014727867
:10285000824202D104F58014761C761C30786628FA
:102860000BD013DC582877D009DC002875D0452818
:10287000F6D04628F4D047281AD19DE118E0632805
:1028800035D0642879D0652812D195E1702873D0AD
:1028900008DC6728F1D069286FD06E280DD06F282A
:1028A00006D1B5E073282CD0752875D0782874D05F
:1028B0005A46179990476D1C75E1C4F302500228DF
:1028C00009D003280DD0D9F8001004280DD00D60D0
:1028D00009F1040967E1D9F80010EA17C1E90052CB
:1028E000F6E7D9F800100D80F2E70D70F0E719F85F
:1028F000041B8DF8001000208DF80100EA4601202D
:1029000003E059F804AB4FF0FF3061074FF00001CE
:1029100002D40DE008F101018846B9420FDA804582
:10292000F8DB1AF808100029F4D108E008F10101D9
:1029300088468142FADB1AF808100029F6D105987A
:102940005B46A0EB080721463846179A00F094FA38
:10295000284400EB080507E04DE029E10DE01AF8F6
:10296000010B5A4617999047B8F10108F7D25B4618
:1029700021463846179A13E142E00A220092C4F336
:1029800002524FF0000A022A08D059F804CB032A59
:102990004FEAEC710AD00DE029E02AE009F10701C5
:1029A00021F00702F2E802C1914609E00FFA8CFC1F
:1029B0004FEAEC71042A03D14FFA8CFC4FEAEC7118
:1029C000002907DA0A460021DCF1000C61EB020164
:1029D0002D2202E0220504D52B228DF804200122AD
:1029E00003E0E20701D02022F7E7904659E00A21F0
:1029F00002E010220DE010214FF0000A00910BE0E0
:102A000010224FF0000A44F004040827009203E06B
:102A100008224FF0000A0092C4F30252022A05D0A5
:102A200059F804CB0021032A08D009E009F1070175
:102A300021F00702F2E802C1914605E01FFA8CFC82
:102A4000042A01D10CF0FF0C4FF00008220728D512
:102A5000702806D0009B83F0100353EA0A0305D0C8
:102A60000EE040228DF80420012208E05CEA010219
:102A700006D030228DF804208DF805000222904601
:102A8000009B83F0080353EA0A030AD15CEA0102BF
:102A900001D1620705D530228DF804204FF00108DE
:102AA0007F1E582804D034A003900EA802900DE099
:102AB00036A0F9E753466046009AFDF781FB84464D
:102AC0000398825C0298401E029002705CEA01004A
:102AD000F0D1029806A9081A00F1200A600702D571
:102AE00024F4803400E00127574502DDA7EB0A00FB
:102AF00000E0002000EB0A01009005984144401AD4
:102B00000590E00306D45B462146179A059800F02D
:102B1000B3F90544002706E001A85A46C05D17999D
:102B200090476D1C7F1C4745F6DBE0030CD55B46E8
:102B30002146179A059800F09FF9054404E03020DB
:102B40005A46179990476D1C0099481E009000291D
:102B5000F5DC08E0029802995A460078491C029177
:102B6000179990476D1CBAF10001AAF1010AF1DC36
:102B700065E1000009280100303132333435363741
:102B800038396162636465660000000030313233B9
:102B90003435363738394142434445460000000059
:102BA00000F058F90544761C307800287FF4ECAD2D
:102BB00019B02846BDE8F08F620700D4062709F156
:102BC000070222F0070CFCE80223E14603F000486C
:102BD0005FEA080C02D00FF2702C0DE05FEA045C93
:102BE00002D50FF2682C07E05FEAC47C02D00FF236
:102BF000602C01E0AFF2700C4FF0FF3823F000437F
:102C0000CDF850C065280CD006DC452809D04628F0
:102C10001DD047283DD13DE0662818D067287ED1D9
:102C200038E00021112F01DB112000E0781CCDE9F4
:102C3000000106A90EA8FFF7DDFCDDE90F010E9AE1
:102C400003910021009207F1010A04914DE04FF039
:102C500000400097CDE9011006A90EA8FFF7CAFCB5
:102C6000DDE90F0203920E9B11990022DDF80CA002
:102C70000093049211B9791C00EB010AB7EB0A002A
:102C800004D4C0F1FF3007F1010A0490AAEB070059
:102C9000019044E0012F00DA01270021112F01DD0E
:102CA000112000E03846CDE9000106A90EA8FFF783
:102CB000A1FCDDE90F010E9A03910021049100921D
:102CC000BA4621070CD40399514500DA8A46BAF175
:102CD000010F05DD009AAAF10101515C302908D0ED
:102CE000B84202DA10F1040F06DA0121CDE9011031
:102CF00015E0AAF10101E9E7002805DC0499014487
:102D00000491AAEB000102E0411C514500DD8A4616
:102D10000499401A401C01904FF000400290200797
:102D200004D40198504501DBCDF8048000208DF8D3
:102D30004F0002980DF14F07B0F1004F25D02B2026
:102D40000E9002984FF0020800280CDA40420290E0
:102D50002D200E9007E00A210298FDF7A0FA3031ED
:102D6000029007F8011DB8F10001A8F10108F2DC9A
:102D700002980028EFD1791E0E980870307800F084
:102D8000200040F0450007F8020D12A8C01B00F11A
:102D900007081498007800B1012000EB0A0101989F
:102DA00001EBE07105984144401A401E0590E00394
:102DB00006D45B462146179A059800F05DF8054455
:102DC0001498007818B15A46179990476D1CE00383
:102DD00024D55B462146179A059800F04DF8054426
:102DE0001CE00498002807DBDDE90301884203DDCD
:102DF0000098405C179901E0179930205A46904797
:102E0000049805F10105401C04900198401E0190B2
:102E100004D12E205A46179990476D1CBAF1000133
:102E2000AAF1010ADDDC05E017F8010B5A461799F3
:102E300090476D1CB8F10001A8F10108F4DC5B4675
:102E40002146179A0598ABE62D0000002B000000E4
:102E5000200000002DE9F041044600251E461746DB
:102E6000880404D405E039462020B0476D1C641E58
:102E7000F9D52846BDE8F0812DE9F041044600254A
:102E80001E469046C80301D5302700E0202788045D
:102E900004D505E041463846B0476D1C641EF9D59F
:102EA0002846BDE8F0810A68531C0B60107070471B
:102EB00070B52A2212491348FDF7B3F9104C608D02
:102EC000104D6885E06AE862206B2863092204F1EE
:102ED000340105F13400FDF7A4F994F83D0085F8BC
:102EE0003D0094F83E0085F83E00206C2864606C3C
:102EF0006864A06CA864E06CE864206D286570BD0F
:102F000048000020FC020020FDF73CFFFFF7A2F87C
:102F1000FEF7E2FF2C482B49002401604FF4E13119
:102F2000C0E901140C21C460C0E904418461C4619A
:102F3000FEF755FCFFF718F823482449CC38016008
:102F40002349C0E901144FF48041C0E903414461C1
:102F50008461C4610462FDF709FDFFF73DF8FEF7E7
:102F6000A5FFFEF799FE0820FEF77AFEFEF71AFD90
:102F7000154D184C40354FF4487613484030FEF755
:102F800093FC95ED010A012184ED000A95ED030AF9
:102F9000084684ED010AFEF721FF94ED000A0EA019
:102FA000FEF79DFE01210220FEF718FF94ED010AB5
:102FB0000CA0FEF794FE3046FDF7E2FBFEF75CFE48
:102FC000DBE70000004400401401002000540040F2
:102FD000A08601000000002074783A252E66207536
:102FE0007320200064783A252E326620636D2020FD
:102FF0000000000010B5392212491348FDF711F9FD
:10300000104890F83900104981F83900104C0F48E9
:103010003922E0600C480F493C30FDF702F90D48B9
:1030200090F8390008493C3181F839004FF0804070
:10303000206109484FF4005160612180A06188003F
:10304000608010BD9C000020500300200000014063
:1030500028000020D8000020000C024000010203DC
:103060000405060708090A0B0C0D0E0F40414243E8
:103070004445464748494A4B4C4D4E4F00000000DE
:103080000000000001020304060708090000000018
:1030900001020304B43000080000002048000000D2
:1030A000D4250008FC3000084800002080070000FC
:1030B000E4250008000000000000000001000000FE
:1030C00010000000000000004EF0010000000000B1
:1030D00010101010000000000000000000000000B0
:1030E00000000000000000000000000000000000E0
:0C30F00000000000000000000024F400BC
:040000050800018965
:00000001FF
