:020000040800F2
:10000000F80800209D0100085F230008891B0008F4
:100010005D2300087B07000831270008000000006E
:100020000000000000000000000000006323000842
:100030007D07000800000000612300086523000818
:10004000B7010008B7010008B7010008B7010008B0
:10005000B7010008B7010008B7010008B7010008A0
:10006000B7010008B7010008B7010008B701000890
:10007000B7010008B7010008B7010008B701000880
:10008000B7010008B7010008B7010008B701000870
:10009000B7010008B7010008B7010008B701000860
:1000A000B70100081524000809240008B70100085A
:1000B000212400082D240008B7010008B70100081A
:1000C000B7010008B7010008B7010008B701000830
:1000D000B7010008B7010008B7010008B701000820
:1000E000B7010008B7010008B7010008B701000810
:1000F0004524000839240008B7010008B7010008AA
:10010000B7010008B7010008B7010008B7010008EF
:10011000B7010008B7010008B7010008B7010008DF
:10012000B7010008B7010008B7010008B7010008CF
:10013000B7010008B7010008B7010008B7010008BF
:10014000B7010008B7010008B7010008B7010008AF
:10015000B7010008B7010008B7010008B70100089F
:10016000B7010008B7010008B7010008B70100088F
:10017000B7010008B7010008B7010008000000003F
:10018000B7010008B7010008DFF80CD000F074FADE
:1001900000480047B1300008F808002006488047B2
:1001A00006480047FEE7FEE7FEE7FEE7FEE7FEE75C
:1001B000FEE7FEE7FEE7FEE7ED2300088901000801
:1001C0002DE9F05F0546002092469B46884606468C
:1001D000814640241BE0284641464746224600F01F
:1001E00083F853465A46C01A914110D31146184617
:1001F000224600F06AF82D1A67EB01084F462246A6
:100200000120002100F061F817EB00094E41201E8B
:10021000A4F10104DFDC484631462A464346BDE8E6
:10022000F09F40EA01039B0703D009E008C9121FB1
:1002300008C0042AFAD203E011F8013B00F8013BA0
:10024000521EF9D27047D2B201E000F8012B491ECC
:10025000FBD270470022F6E710B513460A46044663
:100260001946FFF7F0FF204610BD421C10F8011B95
:100270000029FBD1801A704700F0004230F00040A6
:100280000AD0C10D01F56071C0F3160042EA0151B8
:10029000C20840071143704700200146704730B53F
:1002A0000B46014600202022012409E021FA02F534
:1002B0009D4205D303FA02F5491B04FA02F52844CE
:1002C000151EA2F10102F1DC30BD202A04DB203A28
:1002D00000FA02F1002070479140C2F1200320FA99
:1002E00003F3194390407047202A04DB203A21FA97
:1002F00002F00021704721FA02F3D040C2F120023F
:1003000091400843194670472DE9FE4F804681EA27
:100310000300C00F0C46009021F0004123F000457F
:10032000B8EB0200A94105D24046214690461C4642
:100330000B46024623F00040104347D0270DC7F379
:100340000A00C3F30A510290401A019040286BDA68
:10035000C3F3130040F4801B0098924620B10023A1
:10036000D2EB030A63EB0B0B01985946C0F1400234
:100370005046FFF7AAFF06460D4650465946019AD9
:1003800000F08CF910EB08006141002487EA11525B
:1003900084EAE7731A4340D0009A62B3019A012AB3
:1003A0004FEA075215DC001B61EB02014FF00042DF
:1003B00002EA0752CDE90042001C41F580113246A5
:1003C0002B4600F08CF903B0BDE8F08F4046214683
:1003D000F9E7001B61EB0201001C41F580130018D6
:1003E0005B412018A2F5001747EB030140EAD570E6
:1003F000B6196D4111E06D084FEA360645EAC07541
:100400004FEA0752001B61EB0201001C41F580110D
:1004100049084FEA30000019514132462B4603B0DB
:10042000BDE8F04F00F04CB90098012240000023D5
:10043000D0EB020263EBE073009821464FEAE074D0
:10044000B8EB000061EB0401E9E783F000435BE7F0
:1004500081F0004158E72DE9FE4F81EA030404F0E2
:10046000004421F0004100944FF0000B23F00043C2
:1004700050EA01045ED052EA03045BD0C3F30A548D
:10048000C1F30A552C44A4F2F3340194A0FB0254A6
:10049000C1F3130141F48011C3F3130343F4801338
:1004A00001FB024400FB034E840A970A44EA81548C
:1004B00047EA8357A4FB076802958D0A05FB078569
:1004C0004FEA932C04FB0C542705029D4FEA065873
:1004D00047EA1637B5EB08056EEB070C870E920E50
:1004E00047EA811742EA8312A7FB0201B6EB0B0130
:1004F00064EB00042B0D43EA0C335E1844EB1C50F4
:10050000DA465146E7FB0201C5F313044FEA0B3309
:1005100043EA14534FEA0432019C43EA0603A4F170
:100520000C040294009CCDE900B400F0D8F803B0AC
:10053000BDE8F08F00200146F9E72DE9F04D81EA92
:10054000030404F0004B21F0004514464FF0000A6C
:1005500023F0004150EA050220D054EA01021DD0E8
:10056000C5F30A570246C5F31303C1F31300C1F3E1
:100570000A5640F4801543F48013A7EB0608101BBD
:10058000D64608F2FD3873EB050002D308F10108E6
:1005900001E092185B41B8F1000F03DA0020014638
:1005A000BDE8F08D00204FF48011064684460EE031
:1005B000171B73EB050705D3121B63EB05030643FB
:1005C0004CEA010C49084FEA300092185B4150EAAE
:1005D0000107EDD152EA030012D082EA040083EA57
:1005E0000501084305D0101BAB4106D201220023B0
:1005F00006E000224FF0004302E06FF001025310CA
:100600001AEB06004CEB085110EB0A0041EB0B0112
:10061000BDE8F04D00F054B8C1F30A52C1F3130124
:1006200040F2FF3341F480119A4202DA0020014681
:10063000704740F233439A42A2F2334202DC524204
:10064000FFF752BEFFF741BE30B5041E71F1000442
:1006500004DB4FF00044404264EB0101141E73F1CF
:10066000000405DB1C464FF00043524263EB0403D9
:10067000994208BF904230BD064C074D06E0E06845
:1006800040F0010394E8070098471034AC42F6D3D9
:10069000FFF77EFDDC310008FC310008202A06DB74
:1006A000CB17203A41FA02F043EAE07306E041FA40
:1006B00002F3D040C2F1200291400843194670472E
:1006C00010B5141E73F1000408DA401C41F100015A
:1006D00092185B411A4301D120F0010010BD2DE9B1
:1006E000F04D92469B4611B1B1FA81F202E0B0FAA8
:1006F00080F220329046FFF7E8FD04460F4640EABC
:100700000A0041EA0B0153465A46084313D01146EA
:1007100053EA010019D0C8F140025046FFF7E4FD4A
:1007200005460E46504659464246FFF7CEFD084361
:1007300005D0012004E020463946BDE8F08D0020B8
:10074000054346EAE0762C4337430A986305E40AFA
:10075000A0EB08000022FD0A44EA47540A3002D503
:1007600000200146E9E7010510196941DDE9084566
:1007700000196941BDE8F04DA2E7FEE770477047F8
:1007800070B5044600F0F0F80546601C02D004483D
:100790000078044400F0E8F8401BA042FAD370BD92
:1007A0001C0000202DE9F84F00224FF0010803251E
:1007B0004FF00F0E0B6808FA02F42340A3426ED1EB
:1007C0004E68012E05D0022E03D0112E01D0122E1C
:1007D00012D186684FEA420C05FA0CF7BE43CF6887
:1007E00007FA0CF7374387604668A6430C79C4F3D1
:1007F0000014944034434460C668570005FA07FC6F
:100800008C6826EA0C06BC403443C4604C68022C59
:1008100001D0122C13D1D40800EB8404A346D4F8E1
:10082000209054074FEAD46A0EFA0AF629EA06091C
:100830000E6906FA0AF646EA0906CBF82060066851
:100840000C7926EA0C0604F00304BC40344304602F
:100850004C68E40065D5364C266846F48046266030
:10086000246822F0030604F480440094314C34449C
:10087000A446D4F808489607370F0EFA07F6B44393
:100880002D4EB04201D1002624E02C4EB04201D1C1
:1008900001261FE02A4EB04202D102261AE040E0B3
:1008A000284EB04201D1032614E0274EB04201D1B8
:1008B00004260FE0254EB04201D105260AE0244E61
:1008C000B04201D1062605E0224EB04201D10726F2
:1008D00000E00826BE402643CCF808681E4E346867
:1008E0004F689C43FF0300D51C4334601A4C241D01
:1008F00026684F689E43BF0300D51E432660164EF0
:10090000083634684F689C43FF0200D51C433460AE
:10091000114E0C3634684F689C43BF0200D51C430F
:100920003460521C102AFFF445AFBDE8F88F000078
:100930004438024000300140000002400004024000
:1009400000080240000C0240001002400014024067
:1009500000180240001C0240003C01400AB18161C5
:1009600070470904FBE700000148806870470000F9
:100970001C00002070B5040025D094F83D0000252F
:1009800020B984F83C50204600F004FA242084F872
:100990003D002068016821F00101016020680168C4
:1009A00041F4004101602068016821F400410160C8
:1009B00000F058FB4D4A6168914201D84C4900E073
:1009C0004C49884201D2012070BD4B492368B0FBDD
:1009D000F1F15E6826F03F060E435E606368934265
:1009E00006D94FF4967359434FF47A73B1FBF3F180
:1009F0002368491C1E6A26F03F063143196261686C
:100A0000914210D84900401EB0FBF1F2521CC2F3D3
:100A10000B02042A01D2042022E0B0FBF1F0401CBA
:100A2000C0F30B001CE0A268F2B301EBC10303EBBF
:100A30000116431EB3FBF6F35B1C43F480431B0516
:100A400049D092B301EBC10202EB0111401EB0FB91
:100A5000F1F0401CC0F30B0040F4804040F4004033
:100A60002168CA694CF6FF739A431043C861D4E900
:100A7000071001432068026822F0C00211430160A0
:100A8000D4E9030101432068826848F2FF339A43A6
:100A900011438160D4E9050108432168CA6822F046
:100AA000FF021043C86001E00EE016E02068016814
:100AB00041F0010101602564202084F83D00256398
:100AC00084F83E50002070BD01EB4106431EB3FB8D
:100AD000F6F35B1CB3E70120C2E701EB4101401EC6
:100AE000B0FBF1F0401CC0F30B00B7E7A08601009B
:100AF00080841E0000093D0040420F002DE9FF4F99
:100B000081B089460446FFF72FFF054694F83D0063
:100B10004FF0010820287DD1192301225049204699
:100B2000009501F0BDF8002874D194F83C0001282C
:100B300070D0012084F83C0020680168C90703D107
:100B4000016841F0010101602068016821F4006141
:100B50000160242084F83D00002626644148E062BC
:100B60004FF0011B20272068016841F4807101606B
:100B70000095002259462046049B01F091F850B19F
:100B800020680068C00502D54FF40070206403207F
:100B900005B0BDE8F08F216809F0FE000861FFF79D
:100BA000E3FE2168054648694969C0F34000C1F386
:100BB00080214FF0A00A0FE0FFF7D6FE411B0498FA
:100BC000814200D808B984F83DA021684869496984
:100BD000C0F34000C1F3802194F83D20A02A02D048
:100BE00008B90029E8D084F83D7020684169C943FC
:100BF000890716D4016841F40071016020684169D9
:100C000080691923012216492046009501F048F811
:100C1000B8B900E021E084F83D7084F83C60002021
:100C2000B6E7016841F40071016021686FF48060EB
:100C30004861192301220A492046009501F030F845
:100C400008B10120A4E7039808F1010880458AD380
:100C500084F83D7084F83C60F3E7022098E70000D8
:100C6000020010000000FFFF2DE9F84F1F469046DC
:100C70008A460446DDF82890FFF776FE054694F88C
:100C80003D0020287FD119230122404920460095AC
:100C900001F006F8002876D194F83C00012872D0C3
:100CA000012084F83C0020680168C90703D101686D
:100CB00041F0010101602068016821F400610160D8
:100CC000212084F83D00102084F83E000026266490
:100CD000C4F824806785608D20852D48E0622B460E
:100CE0004A465146204600F067FF90B920684169A6
:100CF0008069009036E02A464946204601F04FF8C8
:100D000050B1206C042804D12068016841F40071BE
:100D100001600120BDE8F88F606A216800780861F1
:100D2000606A401C6062618D491E6185218D491E8B
:100D300089B2218522685369DB435B070BD451B12B
:100D400000781061606A401C6062608D401E6085A2
:100D5000208D401E20852A464946204600F07AFF15
:100D60000028CED1208D0028C5D154F83D0B016854
:100D700041F400710160202004F81E09E6776677CF
:100D80000020C7E7FFE70220C4E7000002001000D0
:100D90000000FFFF10B586B0044614216846FFF737
:100DA00059FA13492068884220D11248016841F05D
:100DB000020101600068694600F002000590C02051
:100DC0000090122001900120029003200390042043
:100DD00004900948FFF7E6FC06481030016841F42A
:100DE00000110160006800F40010059006B010BD0D
:100DF000005400403038024000040240024881683C
:100E000002781144816070471C0000200B4810B527
:100E1000016841F400710160016841F48061016082
:100E2000016841F480710160032000F06FF8002038
:100E300000F006F800F024F8002010BD003C02404D
:100E400070B50D4D04464FF47A712878B1FBF0F07F
:100E50000A490968B1FBF0F000F002FB48B9102C18
:100E600007D200222146501E00F030F800206C60AE
:100E700070BD012070BD00001C000020600000203B
:100E80000A4808B5016841F480410160006800F437
:100E9000804000900548001F016841F080510160CA
:100EA000006800F08050009008BD00004438024007
:100EB000002809DB00F01F02012191404009800059
:100EC00000F1E020C0F8001170470000F0B40E4BB4
:100ED0001B680C46C3F30223C3F10705042D00D998
:100EE0000425191D072901D2002300E0DB1E01267D
:100EF00006FA05F1491E214099409E40761E164093
:100F00003143F0BC01F02ABC0CED00E0064900F0D2
:100F1000070208684FF6FF03184040EA0220034A20
:100F200010430860704700000CED00E00000FA0577
:100F30002DE9F0470E46050065D0DFF81481D8F89A
:100F40000000F7B200F00F00B04207D288F800703E
:100F5000D8F8000000F00F00B04254D128683D4C92
:100F6000810712D5400703D5206840F4E050206087
:100F70002878000703D5206840F46040206020688E
:100F8000A96820F0F000084320602878C0072DD021
:100F9000304968680839012812D0022813D0032884
:100FA00011D00968890700292DDA216821F0030191
:100FB00001432160FFF7D8FC814641F2883A0EE0F8
:100FC00009688903EFE709688901ECE7FFF7CCFCC2
:100FD000A0EB0901514502D90320BDE8F087206844
:100FE000696800F00C00B0EB810FEFD1D8F8001069
:100FF000404601F00F01B14207D90770006800F0C8
:101000000F00B04201D00120E7E72878400705D55E
:101010002068E96820F4E050084320602878000741
:1010200006D52068296920F4604040EAC1002060AC
:1010300000F038F82168084AC1F30311515CC84038
:101040000649086006480068FFF7FAFE0020C4E77A
:10105000003C024008380240C43100086000002013
:10106000200000200448054900680968044AC1F3CB
:101070008221515CC840704760000020083802405F
:10108000D43100080448054900680968044AC1F3DE
:101090004231515CC840704760000020083802406F
:1010A000D4310008154810B5006810F00C0214483F
:1010B00013D04110042A0FD0082A0ED10F4C241F40
:1010C0002268236802F03F025B0207D52068C0F364
:1010D0008810A0FB010106E0084610BD2168C1F39D
:1010E0008811A1FB00010023FFF76AF82168C1F312
:1010F0000141491C4900B0FBF1F010BD0838024025
:101100000024F4002DE9F84F04006ED02078DFF8B9
:101110003C93C007A9F104054AD009F10400016815
:10112000C1F38101012908D00068C0F381000228C1
:101130000AD1D9F80000400206D52868800337D5C7
:1011400060680028E1D033E06068B0F5803F10D0DF
:10115000B0F5A02F286810D020F4803028602868CF
:1011600020F4802028606068A8B1FFF7FDFB0646E8
:101170000DE0286840F48030F4E740F480202860D7
:10118000F7E700BFFFF7F0FB801B642873D82868DF
:101190008003F7D50CE0FFF7E7FB064605E000BF4C
:1011A000FFF7E2FB801B6428F0D828688003F7D49F
:1011B0002078DFF89C8280074FF0000A3ED5A348D4
:1011C000001D016811F00C0F08D00068C0F3810009
:1011D00002280BD1D9F80000400207D42868800704
:1011E00016D5E068012800D112E02BE1E068B8B123
:1011F0000120C8F80000FFF7B7FB064605E000BF76
:10120000FFF7B2FB801B0228C0D828688007F7D5FB
:101210002868216920F0F80040EAC10028600DE04C
:10122000C8F800A0FFF7A0FB064604E0FFF79CFB10
:10123000801B02281FD828688007F7D42078000771
:1012400022D5824E83486169703671B101210160F7
:10125000FFF78AFB074604E0FFF786FBC01B022866
:1012600009D830688007F7D50EE0C0F800A0FFF776
:101270007BFB074605E082E0FFF776FBC01B0228F8
:101280007DD830688007F7D42078400768D5DFF82C
:10129000BCB100270BF13C0BDBF80000C0000BD405
:1012A000DBF8001041F08051CBF80010DBF80000B3
:1012B000012700F080500090674E3068C00510D4C0
:1012C000306840F480703060FFF74EFB009005E01E
:1012D000FFF74AFB0099401A022850D83068C00531
:1012E000F6D55A4EA0686C3601280FD00528306814
:1012F00010D020F001003060306820F00400306031
:10130000A068B8B1FFF730FB00900FE0306840F004
:101310000100F4E740F004003060F7E7FFF724FB3A
:101320000099411A41F28830814266D830688007BE
:10133000F4D50EE0FFF718FB009007E0FFF714FB71
:101340000099411A41F28830814256D830688007AE
:10135000F4D42FB1DBF8001021F08051CBF800104D
:10136000A069C8B33949091D0968C1F3810102297F
:101370004AD00228504607D0C8F8600000E03CE0A0
:10138000FFF7F2FA04463BE04746C8F86000FFF773
:10139000EBFA064605E000BFFFF7E6FA801B0228DD
:1013A0002BD828688001F7D4D4E907010843A16A43
:1013B0002A4A490802EB0141626A41EA8211084364
:1013C00094F82C1040EA0161C9F800100120386639
:1013D000FFF7CAFA044606E036E000BFFFF7C4FA9A
:1013E000001B022809D828688001F7D52CE000BF2F
:1013F000FFF7BAFA001B022802D90320BDE8F88FD4
:1014000028688001F4D41FE00128F7D0D9F8000043
:10141000E26900F48001914214D1226A00F03F0198
:1014200091420FD147F6C071626A0140914209D1E1
:10143000A26A00F44031914204D1E16A00F0706088
:10144000884201D00120D9E70020D7E704380240C4
:1014500000004742800E4742007000400000FFFF3E
:1014600010B5401EB0F1807F01D3012010BD4FF0B8
:10147000E02460610F21601701F070F90020A06185
:1014800007202061002010BD7047704770B590F8AC
:101490003C20012A32D0012480F83C40022280F80E
:1014A0003D2003685A689D6822F070060A6832433E
:1014B0005A60134B02689A4214D0B2F1804F11D097
:1014C000104B9A420ED0104B9A420BD00F4B9A42BF
:1014D00008D00F4B9A4205D00E4B9A4202D00E4BC9
:1014E0009A4204D1496825F080031943916080F83D
:1014F0003D40002180F83C10084670BD022070BDC0
:10150000000001400004004000080040000C0040C2
:1015100000040140004001400018004010B50400E4
:1015200003D094F83D0010B107E0012010BD002069
:1015300084F83C00204600F00DF8022084F83D00BD
:10154000211D206800F084FF012084F83D00002068
:1015500010BD000070B586B0044614216846FEF741
:1015600079FE45492468434A00234348143902253B
:10157000944229D1026842F001020260006800F042
:1015800001000590086840F010000860086800F04D
:101590001000059048150090CDE901530120CDE9D8
:1015A000033069463548FFF7FDF80022114619203F
:1015B000FFF78CFC1920FFF77BFC002211461A2054
:1015C000FFF784FC1A2024E02B4A121FB4F1804F4D
:1015D00011D02B4EB44220D1106840F002001060B0
:1015E0001068002200F00200059011461D20FFF750
:1015F0006DFC1D200DE0106840F0010010601068C7
:10160000002200F00100059011461C20FFF75EFC4F
:101610001C20FFF74DFC06B070BD1A4A9442FAD167
:10162000026842F002020260006800F002000590C9
:10163000086840F0040008600868694600F004008B
:10164000059040200090CDE901530320CDE90330FF
:101650000D48FFF7A7F8002211462C20FFF736FCB3
:101660002C20FFF725FC002211462D20FFF72EFC31
:101670002D20CEE700000140443802400010024017
:101680000004004000040140000802400168CA68EC
:1016900042F00102CA600068816801F00701062972
:1016A00003D0016841F0010101600020704770B56E
:1016B000044690F83C00012817D0012584F83C50DE
:1016C000022084F83D002068826822F0770222F42C
:1016D0007F4282600868502830D00DDC20284DD031
:1016E00005DC98B310283BD148E0022070BD3028BB
:1016F00044D0402834D139E0602828D0702806D062
:10170000B0F5805F2CD0B0F5005F29D10AE0CB683E
:10171000D1E90121206800F0FFFE2068816841F0D6
:10172000770109E0CB68D1E90121206800F0F4FEDF
:101730002068816841F48041816011E0CA6849688D
:10174000206800F03EFF5021206807E016E0CA68DC
:101750004968206800F046FF6021206800F0E6FE3E
:1017600084F83D50002084F83C0070BDCA68496888
:10177000206800F026FF40212068EFE7226801463C
:101780001046EBE7704770B50446006801694FF0FA
:101790000005C943890715D4C168C943890711D415
:1017A000E91E0161012020772068806980072046BA
:1017B00002D0FFF7E7FF04E000F098F8204600F0C1
:1017C00096F8257720680169C943490717D4C1688D
:1017D000C943490713D46FF0040101610220207747
:1017E0002068806910F4407F204602D0FFF7CAFFCE
:1017F00004E000F07BF8204600F079F825772068B7
:101800000169C943090716D4C168C943090712D43D
:101810006FF008010161042020772068C06980070B
:10182000204602D0FFF7AEFF04E000F05FF820464C
:1018300000F05DF8257720680169C943C90617D40F
:10184000C168C943C90613D46FF0100101610820B3
:1018500020772068C06910F4407F204602D0FFF74F
:1018600091FF04E000F042F8204600F040F82577B0
:1018700020680169C943C90708D1C168C943C907BC
:1018800004D1891E0161204600F032F82068016908
:10189000C943090609D4C168C943090605D46FF0D4
:1018A000800101612046FFF7EFFD20680169C9430F
:1018B000490609D4C168C943490605D46FF04001FF
:1018C0000161204600F041F820680169C94389069A
:1018D0000BD4C168C943890607D46FF020010161A8
:1018E0002046BDE87040FFF7D0BD70BD704770471F
:1018F00000F02CB970B5044690F83C00012812D0D5
:10190000012584F83C50022084F83D00204600F078
:1019100015FE01004FF0000007D084F83D5084F818
:101920003C00012070BD022070BD2168CA6822F011
:101930004002CA602168CA6822F48042CA6084F802
:101940003D5084F83C00002070BD704770B5040025
:1019500004D094F83900002510B106E0012070BDD4
:1019600084F83850204600F023F8242084F8390009
:101970002068C16821F40051C160204600F044FE97
:101980002068016921F4904101612068416921F0DA
:101990002A0141612068C16841F40051C160E563DA
:1019A000202084F8390084F83A00002070BD00003F
:1019B00010B586B0044614216846FEF74BFC134967
:1019C0002068884220D112480021026842F4003287
:1019D0000260006800F4003005900D48103802687D
:1019E00042F001020260006800F0010005900F2043
:1019F00000900220CDE9010103200390072004900C
:101A000069460448FEF7CEFE06B010BD0044004013
:101A1000403802400000024070B5054601F08EFBE0
:101A2000364C0122E188606BFEF798FF0122618845
:101A3000206BFEF793FF3248002601684E62006873
:101A40000169C943C907FBD100226188206BFEF7F9
:101A500085FF2B486FF04002403809E04B6A00EEEA
:101A6000103AB8EE400A84ED040A4E6201680A6139
:101A700001680B69DB435B0603D40B69DB43DB07BF
:101A8000ECD194ED040AF6EE000A20EE200ADFED18
:101A90001D0A20EE200AF0EE000A84ED050A94EDFE
:101AA000050A30EE600AF2EE040A84ED050A94EDB0
:101AB000050A85ED030A94ED050A20EE200ADFED04
:101AC000120A85ED020A94ED050A80EE201ADFED78
:101AD0000F0A85ED041A94ED050A80EE201ADFED59
:101AE0000C0A85ED051A94ED040A85ED010A94EDC2
:101AF000040A80EE201A85ED001A70BD280000202F
:101B0000B4040020287E0C3D0000C8425C8F2240B7
:101B100000007A4410B501F011FB0A4C00226188E4
:101B2000206BFEF71BFF0022E188606BFEF716FFBB
:101B30000548FFF7ABFD0448BDE810404030FFF713
:101B4000A5BD0000280000207404002010B5044644
:101B500001F0F4FA0A4821686FF00104426A9142E8
:101B600001D1084809E0026A914208D1C1880022E7
:101B7000406BFEF7F3FE034840380068046110BD77
:101B800028000020B4040020FEE701684A69D2431F
:101B900052050FD46FF480624A61002140F8301F73
:101BA000202242738173026942F0040202610173D0
:101BB0000120704700207047F8B50446C06A1E46F1
:101BC0000D461746082807D0012805D010F5803F9C
:101BD00002D0206B122804D12068016841F4807182
:101BE0000160134600224FF001112046009600F0DC
:101BF00057F840B120680068C00502D54FF4007066
:101C000020640320F8BD2069B0F5804F0ED0062077
:101C1000216800EAD51040F0F000086133463A46EA
:101C20000B49204600F070F878B902E005F0FE009C
:101C300000E0E8B221680861054933463A46891F49
:101C4000204600F061F80028DCD00120F8BD00003B
:101C50000800010070B516460D4604460DE020460A
:101C6000FFF793FF08B1012070BD681C05D0FEF797
:101C70007BFE801BA84207D835B120684069C0436D
:101C80004007ECD4002070BD002044F8300F202124
:101C90006173A073216941F0200121612073E2E7A3
:101CA0002DE9F0471E4690460D460446C1F307470E
:101CB000DDF8209008E0701C06D0FEF755FEA0EB82
:101CC0000900B0420FD876B12068012F18D0806982
:101CD00025EA00000004000C14D000214145EAD0A0
:101CE0000020BDE8F087002044F8300F2021617308
:101CF000A073216941F02001216120730120F0E7E8
:101D00004069E5E70121E9E72DE9F0479A46914668
:101D10000E46044600254FF02008C1F3074725E092
:101D200020684069C043400514D42068016841F42C
:101D30000071016021686FF480604861256384F858
:101D40003D8084F83E50206C40F00400206484F80C
:101D50003C501FE0B9F1FF3F08D0FEF705FEA0EBB5
:101D60000A0149450CD8B9F1000F09D02068012FAC
:101D700013D0806926EA00000004000C0BD0CFE7E6
:101D800044F8305F84F80D80A573206940F020008E
:101D9000206125730120BDE8F0874069EAE770B54E
:101DA00016460D4604460DE02046FFF7EEFE08B14C
:101DB000012070BD681C05D0FEF7D6FD801BA8422F
:101DC00007D835B120684069C0430006ECD4002034
:101DD00070BD002044F8300F20216173A073216989
:101DE00041F0200121612073E2E700000449082846
:101DF00001D0002803D1C871202000F0F1B870474D
:101E00000800002010B5012000F0C4F80A20FEF7F9
:101E1000B7FC03480021C1700121817010BD000092
:101E20000800002010B5012000F0B4F84FF47A70DB
:101E3000FEF7A6FC022000F0ADF80520FEF7A0FC9E
:101E4000282000F0A7F80520FEF79AFC0C2000F0EF
:101E5000A1F80520FEF794FC802000F09BF8BDE877
:101E600010404FF4FA70FEF78BBC10B504469AB0E0
:101E700010EE100AFEF700FA41EC100B214653EC6D
:101E8000102B684600F056FC0021684600F002F86E
:101E90001AB010BD2DE9F047304D00260446EE7013
:101EA00071B301292FD12E49002000BF41F82040F5
:101EB000401C641C6428F9DB89460868FEF7D5F9E4
:101EC0002871264FA8780837391811F8011C00F03E
:101ED00049F8A97807F1040808EB010010F8014C53
:101EE0001AE0641C00F07CF8E878401CC0B2E8708E
:101EF000102805D1A8780121401C00F033F8EE70BD
:101F000020780028EDD1BDE8F08700BF59F8240003
:101F1000007800F065F8641C28798442F6DBA97823
:101F2000781810F8012C521E12F0FF0200F8012C54
:101F3000E9D10122414400F8012C11F8012C521C76
:101F4000D2B201F8012C2B799A42DCD1102200F890
:101F5000012C01F8016C2E71D5E70000080000206B
:101F600010020020094A9070421E012A0CD84A1E15
:101F70000F2A09D8064A02EB0010084410F8110C89
:101F800040F0800000F006B8704700000800002014
:101F9000A431000838B5104C627800EA020102EA68
:101FA0000010E27911431043617104F11002A07135
:101FB00041F004031370517040F004019170D0702F
:101FC00001F04AF8C8200090042304F1100221789F
:101FD0000248FEF749FE38BD08000020A00300209B
:101FE00038B5124C627800EA020102EA0010E27988
:101FF00011436171104341F0050304F11002A07117
:10200000137041F00101517040F00501917040F0F2
:102010000100D07001F020F8C8200090042304F1E2
:10202000100221780248FEF71FFE38BD080000208C
:10203000A003002070B53220FEF7A2FB01F00CF8DF
:10204000054D4FF47A742346032229780348FEF79E
:1020500055FD0028F7D170BD08000020A003002026
:1020600070B586B014216846FEF7F4F822480024C3
:10207000016841F080010160016801F08001059173
:10208000016841F001010160016801F00101059161
:10209000016841F010010160016801F01001059133
:1020A000016841F008010160016801F00801059133
:1020B000016841F004010160016801F0040105912B
:1020C000016841F00201016000680C4E00F002005E
:1020D0004FF476450590002229463046FEF73EFC37
:1020E00001200095CDE90104694630460394FEF7CE
:1020F00059FB06B070BD000030380240000C0240B1
:102100000D4810B50B4901600C49416000214FF4A6
:1021100080428160C0E9031241618161C161016255
:10212000FEF728FC002803D0BDE81040FEF727BBCF
:1021300010BD0000005400407C000020A08601007B
:1021400010B58CB0002405940694079414216846B9
:102150000894FEF77FF81C4809941A490A94016014
:10216000A721C0E901144FF6FF71C0E903144461CF
:102170008461FFF7D3F908B1FEF701FB4FF48050FB
:10218000059005A91048FFF792FA08B1FEF7F7FA93
:10219000052000905020CDE901040F2004906946ED
:1021A0000948FFF7A7FB08B1FEF7E9FA099409A966
:1021B00005480A94FFF76AF9002801D0FEF7DFFA14
:1021C0000CB010BD00000140D000002010B586B05A
:1021D00000241648009401940294039404944FF050
:1021E0008041059401605321C0E901140921C0E92F
:1021F00003148461FFF792F908B1FEF7C0FA4FF4B7
:102200008050009069460948FFF751FA08B1FEF77F
:10221000B6FA049404A905480594FFF737F9002895
:1022200001D0FEF7ACFA06B010BD0000100100208E
:1022300010B586B0002416480094019402940394CB
:1022400004941249059401605321C0E90114092145
:10225000C0E903148461FFF761F908B1FEF78FFA52
:102260004FF48050009069460948FFF720FA08B102
:10227000FEF785FA049404A905480594FFF706F9CA
:10228000002801D0FEF77BFA06B010BD0004004024
:102290005001002010B58CB00024059406940794DA
:1022A000142168460894FDF7D5FF1C4809941A4983
:1022B0000A940160A721C0E901144FF6FF71C0E93B
:1022C000031444618461FFF729F908B1FEF757FA56
:1022D0004FF48050059005A91048FFF7E8F908B1C0
:1022E000FEF74DFA052000905020CDE901040F20A3
:1022F000049069460948FFF7FDFA08B1FEF73FFA76
:10230000099409A905480A94FFF7C0F8002801D0EC
:10231000FEF735FA0CB010BD00040140900100201A
:102320000D4810B50B4901604FF4E13141600021C7
:1023300081600C22C160C0E904129201C0E906214B
:10234000FFF704FB002803D0BDE81040FEF717BAE2
:1023500010BD000000440040D0010020FEE770479F
:1023600070477047FEF74ABD30B593B030216846DC
:10237000FDF770FF14210CA8FDF76CFF194800252C
:10238000016841F080510160006800F080501190B8
:102390001548016841F4804101600068022400F49E
:1023A0008040119001200090000401908001CDE94F
:1023B000064008AA0420A82182E813000B90684672
:1023C000FEF7A0FE0CA90F2081E831004FF4A050C9
:1023D0000F90E002109005210CA8FEF7A9FD13B0A4
:1023E00030BD0000403802400070004005480168E0
:1023F00041F47001016003494FF0006080390860CA
:102400007047000088ED00E00148FFF7BCB900000C
:10241000D00000200148FFF7B6B90000D00000202E
:102420000148FFF7B0B90000100100200148FFF794
:10243000AAB90000500100200148FFF7A4B900002C
:10244000900100200148FFF79EB900009001002094
:10245000F0B50268254C264D264E274F274B4FF0EE
:10246000804CA04209D0604507D0A84205D0B042B8
:1024700003D0B84201D0984204D122F0700E4A68CD
:1024800042EA0E02A0421BD0604519D0A84217D0E4
:10249000B04215D0B84213D0984211D0184DA8427E
:1024A0000ED0184DA8420BD0174DA84208D0174D9A
:1024B000A84205D0164DA84202D0164DA84203D11D
:1024C00022F44075CA682A434D6922F080022A43EB
:1024D00002608A68C2620A688262A04201D09842A1
:1024E00001D10969016301214161F0BD0000014092
:1024F0000004004000080040000C004000040140BF
:1025000000400140004401400048014000180040E4
:10251000001C00400020004010B5846842EA0322FD
:1025200024F47F440A432243826010BD826822F073
:1025300070020A4342F007018160704710B50368DA
:102540009A6822F070044A68224322F007040A685D
:1025500022439A604A6812F00F0F30D11211082AF4
:102560002DD2DFE802F02C2C2C2C0B2127040B6938
:10257000D1E902210068FFF7CFFF20E00A68052AB1
:1025800010D00268136A146A24F00104146202680D
:102590009469096924F0F00444EA0111916100682A
:1025A00003620CE0012010BD0A698968006800F030
:1025B00008F804E00A698968006800F013F8002050
:1025C00010BD10B5036A046A24F001040462846932
:1025D00024F0F00444EA021423F00A020A4384615E
:1025E000026210BD10B5036A23F010030362836911
:1025F000046A23F4704343EA023224F0A00343EA5E
:1026000001118261016210BD2DE9F04104460068AC
:102610000169E26821F44051114301612169A06818
:10262000E26908436169114308432168CA6849F2B5
:102630000C639A430243CA6020684169A26921F48D
:10264000407111434161E069192764253226B0F5D4
:10265000004F354A354920684FF0000806D08842BF
:1026600001D0904236D1FEF70DFD35E0884201D011
:10267000904202D1FEF706FD01E0FEF7F3FC61682F
:102680004A18A0FB070148EB0803FDF799FD014636
:10269000B0FBF5F00201B1FBF5F06FF01803584301
:1026A00001EB800006EBC000B0FBF5F000F0F80095
:1026B00002EB4002B1FBF5F0584301EB800006EB62
:1026C000C000B0FBF5F000F00700216810448860FE
:1026D000BDE8F081FEF7C6FC61688B0F8A00A0FBA5
:1026E0000701FDF76DFD0146B0FBF5F06FF0180234
:1026F000504301EB800006EB0010B0FBF5F000F05A
:10270000F002B1FBF5F002EB0012B1FBF5F06FF057
:102710001803584301EB800006EB0010B0FBF5F006
:1027200000F00F00D1E7000000140140001001404C
:10273000FEE700000FB4084B10B504A902AA0398E5
:1027400000F0EEF8044602A9002000F080FC2046CC
:1027500010BC5DF814FB00004F3000080907090E9B
:10276000002804DB00F1E02080F80014704700F03E
:102770000F0000F1E02080F8141D704702E008C847
:10278000121F08C1002AFAD170477047002001E0EB
:1027900001C1121F002AFBD1704700002DE9FF5F25
:1027A00082B00021DDE90430020DDDF840B00343C2
:1027B00018D044F61050A2F2FF324243151411987B
:1027C00001281FD0A5EB0B00401C5FEA000A4FF068
:1027D00000064E4FDFF83891B046504615D5CAF185
:1027E000000413E0119801244AA3012801D16FEAE3
:1027F0000B010298119AC0E90031C0E9024206B00B
:10280000BDE8F09FCBF10000DFE704460021404A1D
:10281000491842EB0450CDE9001012E0E00707D060
:1028200032463B4640464946FDF715FE80468946FE
:1028300032463B4610461946FDF70DFE06460F464A
:102840006410002CEAD1DDE90401DDE90023BAF1CE
:10285000000F06DAFDF7FFFD42464B46FDF7FBFD94
:1028600005E0FDF76AFE42464B46FDF766FE04466C
:102870000E460022284BFDF7E7FE03D84FF0FF304D
:10288000014607E00022254B20463146FDF73CFD7E
:10289000FDF7C2FE102409E0002C0ADB0A22002307
:1028A000FDF78EFC039B30321A55641E50EA01027C
:1028B000F2D1641C039AC4F111031444119A012A41
:1028C00003D0012208430DD10AE0084304D00020C0
:1028D0004FF0110B119072E7A3EB0B056D1E0DE08D
:1028E0005B4504DD4FF0000205F1010504E003DA69
:1028F0004FF00002A5F10105002AECD002981199D1
:10290000C0E90231C0E9004579E700000000144049
:102910000000F03F300000000000F0430000E03F06
:102920002DE9FF4F95B09B468946064600250FE2EC
:10293000252877D100242746F84A0121059400E094
:10294000044316F8013F203B01FA03F01042F7D18F
:1029500030782A2811D06FF02F033078A0F13002A0
:10296000092A16D8059A44F0020402EB820203EB0E
:1029700042021044761C0590EFE759F8042B0592AB
:10298000002A03DA504244F40054059044F0020453
:10299000761C30782E2816D116F8010F44F0040466
:1029A0002A280DD06FF02F023078A0F13003092BC8
:1029B00009D807EB870302EB4303C718761CF3E73C
:1029C00059F8047B761C30786C280FD006DC4C2834
:1029D00017D068280DD06A2814D104E0742810D0CC
:1029E0007A280FD10DE044F400140AE044F4801476
:1029F00001E044F440147278824202D104F580145C
:102A0000761C761C307866280BD013DC582877D0DB
:102A100009DC002875D04528F6D04628F4D0472890
:102A20001AD19DE118E0632835D0642879D0652853
:102A300012D195E1702873D008DC6728F1D069289D
:102A40006FD06E280DD06F2806D1B5E073282CD03A
:102A5000752875D0782874D05A46179990476D1C00
:102A600075E1C4F30250022809D003280DD0D9F82B
:102A7000001004280DD00D6009F1040967E1D9F8B0
:102A80000010EA17C1E90052F6E7D9F800100D80EE
:102A9000F2E70D70F0E719F8041B8DF80010002024
:102AA0008DF80100EA46012003E059F804AB4FF02D
:102AB000FF3061074FF0000102D40DE008F1010181
:102AC0008846B9420FDA8045F8DB1AF80810002969
:102AD000F4D108E008F1010188468142FADB1AF8D6
:102AE00008100029F6D105985B46A0EB080721469F
:102AF0003846179A00F094FA284400EB080507E0DE
:102B00004DE029E10DE01AF8010B5A46179990475C
:102B1000B8F10108F7D25B4621463846179A13E10F
:102B200042E00A220092C4F302524FF0000A022A45
:102B300008D059F804CB032A4FEAEC710AD00DE013
:102B400029E02AE009F1070121F00702F2E802C1B9
:102B5000914609E00FFA8CFC4FEAEC71042A03D18C
:102B60004FFA8CFC4FEAEC71002907DA0A46002183
:102B7000DCF1000C61EB02012D2202E0220504D5FC
:102B80002B228DF80420012203E0E20701D020224D
:102B9000F7E7904659E00A2102E010220DE01021EB
:102BA0004FF0000A00910BE010224FF0000A44F0B1
:102BB00004040827009203E008224FF0000A009264
:102BC000C4F30252022A05D059F804CB0021032A8B
:102BD00008D009E009F1070121F00702F2E802C17B
:102BE000914605E01FFA8CFC042A01D10CF0FF0C81
:102BF0004FF00008220728D5702806D0009B83F0EC
:102C0000100353EA0A0305D00EE040228DF8042099
:102C1000012208E05CEA010206D030228DF804208F
:102C20008DF8050002229046009B83F0080353EACA
:102C30000A030AD15CEA010201D1620705D53022FC
:102C40008DF804204FF001087F1E582804D034A0CE
:102C500003900EA802900DE036A0F9E753466046B7
:102C6000009AFDF7ADFA84460398825C0298401EF4
:102C7000029002705CEA0100F0D1029806A9081ADD
:102C800000F1200A600702D524F4803400E0012717
:102C9000574502DDA7EB0A0000E0002000EB0A0127
:102CA000009005984144401A0590E00306D45B4625
:102CB0002146179A059800F0B3F90544002706E06D
:102CC00001A85A46C05D179990476D1C7F1C474567
:102CD000F6DBE0030CD55B462146179A059800F019
:102CE0009FF9054404E030205A46179990476D1C1F
:102CF0000099481E00900029F5DC08E0029802992E
:102D00005A460078491C0291179990476D1CBAF1F8
:102D10000001AAF1010AF1DC65E1000009280100C7
:102D20003031323334353637383961626364656641
:102D30000000000030313233343536373839414203
:102D4000434445460000000000F058F90544761C55
:102D5000307800287FF4ECAD19B02846BDE8F08F3C
:102D6000620700D4062709F1070222F0070CFCE8ED
:102D70000223E14603F000485FEA080C02D00FF29C
:102D8000702C0DE05FEA045C02D50FF2682C07E0BE
:102D90005FEAC47C02D00FF2602C01E0AFF2700C4D
:102DA0004FF0FF3823F00043CDF850C065280CD019
:102DB00006DC452809D046281DD047283DD13DE0F6
:102DC000662818D067287ED138E00021112F01DB5A
:102DD000112000E0781CCDE9000106A90EA8FFF73C
:102DE000DDFCDDE90F010E9A03910021009207F14D
:102DF000010A04914DE04FF000400097CDE9011029
:102E000006A90EA8FFF7CAFCDDE90F0203920E9B8C
:102E100011990022DDF80CA00093049211B9791CDD
:102E200000EB010AB7EB0A0004D4C0F1FF3007F150
:102E3000010A0490AAEB0700019044E0012F00DA98
:102E400001270021112F01DD112000E03846CDE9D6
:102E5000000106A90EA8FFF7A1FCDDE90F010E9AFB
:102E60000391002104910092BA4621070CD40399E2
:102E7000514500DA8A46BAF1010F05DD009AAAF140
:102E80000101515C302908D0B84202DA10F1040F78
:102E900006DA0121CDE9011015E0AAF10101E9E707
:102EA000002805DC049901440491AAEB000102E02A
:102EB000411C514500DD8A460499401A401C01908E
:102EC0004FF000400290200704D40198504501DBE8
:102ED000CDF8048000208DF84F0002980DF14F07C7
:102EE000B0F1004F25D02B200E9002984FF0020831
:102EF00000280CDA404202902D200E9007E00A21B3
:102F00000298FDF7CCF93031029007F8011DB8F1B5
:102F10000001A8F10108F2DC02980028EFD1791E27
:102F20000E980870307800F0200040F0450007F857
:102F3000020D12A8C01B00F107081498007800B118
:102F4000012000EB0A01019801EBE0710598414472
:102F5000401A401E0590E00306D45B462146179AAE
:102F6000059800F05DF805441498007818B15A46A9
:102F7000179990476D1CE00324D55B462146179AAC
:102F8000059800F04DF805441CE00498002807DB84
:102F9000DDE90301884203DD0098405C179901E0F8
:102FA000179930205A469047049805F10105401CB6
:102FB00004900198401E019004D12E205A46179982
:102FC00090476D1CBAF10001AAF1010ADDDC05E0B1
:102FD00017F8010B5A46179990476D1CB8F100017C
:102FE000A8F10108F4DC5B462146179A0598ABE688
:102FF0002D0000002B000000200000002DE9F04112
:10300000044600251E461746880404D405E03946C8
:103010002020B0476D1C641EF9D52846BDE8F0811C
:103020002DE9F041044600251E469046C80301D50F
:10303000302700E02027880404D505E041463846C3
:10304000B0476D1C641EF9D52846BDE8F0810A68BA
:10305000531C0B601070704770B52A221249134838
:10306000FDF7DFF8104C608D104D6885E06AE8626E
:10307000206B2863092204F1340105F13400FDF7C7
:10308000D0F894F83D0085F83D0094F83E0085F8AE
:103090003E00206C2864606C6864A06CA864E06CDE
:1030A000E864206D286570BD7C000020A00300202E
:1030B000FDF7ACFEFFF758F9FEF7D2FFFFF720F857
:1030C000FFF73EF8FFF782F8FFF72AF9FFF7B0F8AD
:1030D000FFF7E0F8FEF7AEFFFEF7A4FE0820FEF7CC
:1030E00085FEFEF717FD0F4D0F4C4FF4FA760D4895
:1030F000FEF792FC95ED010A012184ED000A95EDA1
:10310000030A022084ED010AFEF72CFF94ED010A68
:1031100006A0FEF7AAFE3046FDF732FBFEF772FE70
:10312000E5E70000640000200000002064783A25F4
:103130002E326620636D20200000000010B53D2275
:1031400011491248FDF76DF80F4890F83D000F49FE
:1031500081F83D000F4C0E483D2220620B480E497D
:103160004030FDF75EF80C4890F83D0007494031CB
:1031700081F83D000948606209482063411561807B
:1031800060630015E08010BD9001002074040020F1
:1031900000040140280000205001002000040040ED
:1031A000000C0240000102030405060708090A0B8F
:1031B0000C0D0E0F404142434445464748494A4B97
:1031C0004C4D4E4F000000000000000001020304BF
:1031D000060708090000000001020304FC31000892
:1031E00000000020640000007C2700086032000816
:1031F00064000020940800008C27000800000000F4
:10320000000000004EF0010000000000101010103F
:10321000000000000000000001000000100000009D
:10322000000000000000000000000000000000009E
:10323000000000000000000000000000000000008E
:10324000000000000000000000000000000000007E
:103250000000000000000000000000000024F40056
:040000050800018965
:00000001FF
